{
  "_format": "hh3-artifact-1",
  "contractName": "ProofStore",
  "sourceName": "contracts/ProofStore.sol",
  "abi": [
    {
      "anonymous": false,
      "inputs": [
        {
          "indexed": true,
          "internalType": "address",
          "name": "walletAddress",
          "type": "address"
        },
        {
          "indexed": true,
          "internalType": "string",
          "name": "fileHash",
          "type": "string"
        },
        {
          "indexed": false,
          "internalType": "string",
          "name": "cid",
          "type": "string"
        },
        {
          "indexed": false,
          "internalType": "uint256",
          "name": "timestamp",
          "type": "uint256"
        }
      ],
      "name": "ProofCreated",
      "type": "event"
    },
    {
      "inputs": [
        {
          "internalType": "string",
          "name": "_fileHash",
          "type": "string"
        }
      ],
      "name": "getProof",
      "outputs": [
        {
          "components": [
            {
              "internalType": "address",
              "name": "walletAddress",
              "type": "address"
            },
            {
              "internalType": "string",
              "name": "fileHash",
              "type": "string"
            },
            {
              "internalType": "string",
              "name": "fileName",
              "type": "string"
            },
            {
              "internalType": "uint256",
              "name": "fileSize",
              "type": "uint256"
            },
            {
              "internalType": "string",
              "name": "contentType",
              "type": "string"
            },
            {
              "internalType": "string",
              "name": "cid",
              "type": "string"
            },
            {
              "internalType": "uint256",
              "name": "timestamp",
              "type": "uint256"
            }
          ],
          "internalType": "struct ProofStore.Proof",
          "name": "",
          "type": "tuple"
        }
      ],
      "stateMutability": "view",
      "type": "function"
    },
    {
      "inputs": [
        {
          "internalType": "address",
          "name": "_user",
          "type": "address"
        }
      ],
      "name": "getUserProofs",
      "outputs": [
        {
          "internalType": "string[]",
          "name": "",
          "type": "string[]"
        }
      ],
      "stateMutability": "view",
      "type": "function"
    },
    {
      "inputs": [
        {
          "internalType": "string",
          "name": "_fileHash",
          "type": "string"
        },
        {
          "internalType": "string",
          "name": "_fileName",
          "type": "string"
        },
        {
          "internalType": "uint256",
          "name": "_fileSize",
          "type": "uint256"
        },
        {
          "internalType": "string",
          "name": "_contentType",
          "type": "string"
        },
        {
          "internalType": "string",
          "name": "_cid",
          "type": "string"
        }
      ],
      "name": "storeProof",
      "outputs": [],
      "stateMutability": "nonpayable",
      "type": "function"
    },
    {
      "inputs": [],
      "name": "totalProofs",
      "outputs": [
        {
          "internalType": "uint256",
          "name": "",
          "type": "uint256"
        }
      ],
      "stateMutability": "view",
      "type": "function"
    },
    {
      "inputs": [
        {
          "internalType": "string",
          "name": "_fileHash",
          "type": "string"
        },
        {
          "internalType": "string",
          "name": "_cid",
          "type": "string"
        }
      ],
      "name": "verifyProof",
      "outputs": [
        {
          "internalType": "bool",
          "name": "",
          "type": "bool"
        }
      ],
      "stateMutability": "view",
      "type": "function"
    }
  ],
  "bytecode": "0x6080604052348015600e575f5ffd5b50610e0d8061001c5f395ff3fe608060405234801561000f575f5ffd5b5060043610610055575f3560e01c80632ded3568146100595780633f86f8191461007557806346bdfb801461008a57806378939fad146100aa578063d57763a1146100cd575b5f5ffd5b61006260025481565b6040519081526020015b60405180910390f35b610088610083366004610905565b6100ed565b005b61009d6100983660046109c7565b6103a6565b60405161006c9190610a22565b6100bd6100b8366004610a85565b610490565b604051901515815260200161006c565b6100e06100db366004610aea565b610512565b60405161006c9190610b24565b5f85511161014e5760405162461bcd60e51b8152602060048201526024808201527f50726f6f6653746f72653a2066696c65486173682063616e6e6f7420626520656044820152636d70747960e01b60648201526084015b60405180910390fd5b5f81511161019e5760405162461bcd60e51b815260206004820152601f60248201527f50726f6f6653746f72653a206369642063616e6e6f7420626520656d707479006044820152606401610145565b5f856040516101ad9190610bcc565b908152602001604051809103902060010180546101c990610be2565b1590506102245760405162461bcd60e51b8152602060048201526024808201527f50726f6f6653746f72653a2066696c65206861736820616c72656164792065786044820152636973747360e01b6064820152608401610145565b5f6040518060e00160405280336001600160a01b03168152602001878152602001868152602001858152602001848152602001838152602001428152509050805f876040516102739190610bcc565b90815260405160209181900382019020825181546001600160a01b0319166001600160a01b039091161781559082015160018201906102b29082610c66565b50604082015160028201906102c79082610c66565b5060608201516003820155608082015160048201906102e69082610c66565b5060a082015160058201906102fb9082610c66565b5060c09190910151600690910155335f9081526001602081815260408320805492830181558352909120016103308782610c66565b5060028054905f61034083610d21565b9190505550856040516103539190610bcc565b6040518091039020336001600160a01b03167fe8932153cac222c948293560d66f0332ff70e8e7d0ce4d7286f8a693781bbdee8442604051610396929190610d45565b60405180910390a3505050505050565b6001600160a01b0381165f908152600160209081526040808320805482518185028101850190935280835260609492939192909184015b82821015610485578382905f5260205f200180546103fa90610be2565b80601f016020809104026020016040519081016040528092919081815260200182805461042690610be2565b80156104715780601f1061044857610100808354040283529160200191610471565b820191905f5260205f20905b81548152906001019060200180831161045457829003601f168201915b5050505050815260200190600101906103dd565b505050509050919050565b5f5f836040516104a09190610bcc565b908152602001604051809103902060010180546104bc90610be2565b90505f036104cb57505f61050c565b81805190602001205f846040516104e29190610bcc565b90815260200160405180910390206005016040516105009190610d66565b60405180910390201490505b92915050565b6105586040518060e001604052805f6001600160a01b0316815260200160608152602001606081526020015f815260200160608152602001606081526020015f81525090565b5f5f836040516105689190610bcc565b9081526020016040518091039020600101805461058490610be2565b9050116105d35760405162461bcd60e51b815260206004820152601b60248201527f50726f6f6653746f72653a2070726f6f66206e6f7420666f756e6400000000006044820152606401610145565b5f826040516105e29190610bcc565b90815260408051918290036020908101832060e0840190925281546001600160a01b031683526001820180549184019161061b90610be2565b80601f016020809104026020016040519081016040528092919081815260200182805461064790610be2565b80156106925780601f1061066957610100808354040283529160200191610692565b820191905f5260205f20905b81548152906001019060200180831161067557829003601f168201915b505050505081526020016002820180546106ab90610be2565b80601f01602080910402602001604051908101604052809291908181526020018280546106d790610be2565b80156107225780601f106106f957610100808354040283529160200191610722565b820191905f5260205f20905b81548152906001019060200180831161070557829003601f168201915b505050505081526020016003820154815260200160048201805461074590610be2565b80601f016020809104026020016040519081016040528092919081815260200182805461077190610be2565b80156107bc5780601f10610793576101008083540402835291602001916107bc565b820191905f5260205f20905b81548152906001019060200180831161079f57829003601f168201915b505050505081526020016005820180546107d590610be2565b80601f016020809104026020016040519081016040528092919081815260200182805461080190610be2565b801561084c5780601f106108235761010080835404028352916020019161084c565b820191905f5260205f20905b81548152906001019060200180831161082f57829003601f168201915b505050505081526020016006820154815250509050919050565b634e487b7160e01b5f52604160045260245ffd5b5f82601f830112610889575f5ffd5b813567ffffffffffffffff8111156108a3576108a3610866565b604051601f8201601f19908116603f0116810167ffffffffffffffff811182821017156108d2576108d2610866565b6040528181528382016020018510156108e9575f5ffd5b816020850160208301375f918101602001919091529392505050565b5f5f5f5f5f60a08688031215610919575f5ffd5b853567ffffffffffffffff81111561092f575f5ffd5b61093b8882890161087a565b955050602086013567ffffffffffffffff811115610957575f5ffd5b6109638882890161087a565b94505060408601359250606086013567ffffffffffffffff811115610986575f5ffd5b6109928882890161087a565b925050608086013567ffffffffffffffff8111156109ae575f5ffd5b6109ba8882890161087a565b9150509295509295909350565b5f602082840312156109d7575f5ffd5b81356001600160a01b03811681146109ed575f5ffd5b9392505050565b5f81518084528060208401602086015e5f602082860101526020601f19601f83011685010191505092915050565b5f602082016020835280845180835260408501915060408160051b8601019250602086015f5b82811015610a7957603f19878603018452610a648583516109f4565b94506020938401939190910190600101610a48565b50929695505050505050565b5f5f60408385031215610a96575f5ffd5b823567ffffffffffffffff811115610aac575f5ffd5b610ab88582860161087a565b925050602083013567ffffffffffffffff811115610ad4575f5ffd5b610ae08582860161087a565b9150509250929050565b5f60208284031215610afa575f5ffd5b813567ffffffffffffffff811115610b10575f5ffd5b610b1c8482850161087a565b949350505050565b602080825282516001600160a01b03168282015282015160e060408301525f90610b526101008401826109f4565b90506040840151601f19848303016060850152610b6f82826109f4565b915050606084015160808401526080840151601f198483030160a0850152610b9782826109f4565b91505060a0840151601f198483030160c0850152610bb582826109f4565b91505060c084015160e08401528091505092915050565b5f82518060208501845e5f920191825250919050565b600181811c90821680610bf657607f821691505b602082108103610c1457634e487b7160e01b5f52602260045260245ffd5b50919050565b601f821115610c6157805f5260205f20601f840160051c81016020851015610c3f5750805b601f840160051c820191505b81811015610c5e575f8155600101610c4b565b50505b505050565b815167ffffffffffffffff811115610c8057610c80610866565b610c9481610c8e8454610be2565b84610c1a565b6020601f821160018114610cc6575f8315610caf5750848201515b5f19600385901b1c1916600184901b178455610c5e565b5f84815260208120601f198516915b82811015610cf55787850151825560209485019460019092019101610cd5565b5084821015610d1257868401515f19600387901b60f8161c191681555b50505050600190811b01905550565b5f60018201610d3e57634e487b7160e01b5f52601160045260245ffd5b5060010190565b604081525f610d5760408301856109f4565b90508260208301529392505050565b5f5f8354610d7381610be2565b600182168015610d8a5760018114610d9f57610dcc565b60ff1983168652811515820286019350610dcc565b865f5260205f205f5b83811015610dc457815488820152600190910190602001610da8565b505081860193505b50919594505050505056fea2646970667358221220c833f213e33cfbc1962fe0943f34b38890d4219c65309232e2fe71437a5a29a864736f6c634300081c0033",
  "linkReferences": {},
  "deployedLinkReferences": {},
  "immutableReferences": {},
  "inputSourceName": "project/contracts/ProofStore.sol",
  "buildInfoId": "solc-0_8_28-a88db5e20bd1244a78f28b167f89e4d3edbcd34e"
}