{
	"ProofStore.sol": {
		"ProofStore": {
			"abi": [
				{
					"anonymous": false,
					"inputs": [
						{
							"indexed": true,
							"internalType": "bytes32",
							"name": "fileHash",
							"type": "bytes32"
						},
						{
							"indexed": true,
							"internalType": "address",
							"name": "owner",
							"type": "address"
						},
						{
							"indexed": false,
							"internalType": "string",
							"name": "cid",
							"type": "string"
						},
						{
							"indexed": false,
							"internalType": "uint256",
							"name": "timestamp",
							"type": "uint256"
						},
						{
							"indexed": false,
							"internalType": "string",
							"name": "fileName",
							"type": "string"
						},
						{
							"indexed": false,
							"internalType": "uint256",
							"name": "fileSize",
							"type": "uint256"
						},
						{
							"indexed": false,
							"internalType": "string",
							"name": "contentType",
							"type": "string"
						}
					],
					"name": "ProofCreated",
					"type": "event"
				},
				{
					"inputs": [
						{
							"internalType": "bytes32",
							"name": "_fileHash",
							"type": "bytes32"
						}
					],
					"name": "getProof",
					"outputs": [
						{
							"internalType": "address",
							"name": "owner",
							"type": "address"
						},
						{
							"internalType": "string",
							"name": "cid",
							"type": "string"
						},
						{
							"internalType": "uint256",
							"name": "timestamp",
							"type": "uint256"
						}
					],
					"stateMutability": "view",
					"type": "function"
				},
				{
					"inputs": [
						{
							"internalType": "bytes32",
							"name": "_fileHash",
							"type": "bytes32"
						}
					],
					"name": "isProofExists",
					"outputs": [
						{
							"internalType": "bool",
							"name": "",
							"type": "bool"
						}
					],
					"stateMutability": "view",
					"type": "function"
				},
				{
					"inputs": [
						{
							"internalType": "bytes32",
							"name": "",
							"type": "bytes32"
						}
					],
					"name": "proofs",
					"outputs": [
						{
							"internalType": "address",
							"name": "owner",
							"type": "address"
						},
						{
							"internalType": "string",
							"name": "cid",
							"type": "string"
						},
						{
							"internalType": "uint256",
							"name": "timestamp",
							"type": "uint256"
						}
					],
					"stateMutability": "view",
					"type": "function"
				},
				{
					"inputs": [
						{
							"internalType": "bytes32",
							"name": "_fileHash",
							"type": "bytes32"
						},
						{
							"internalType": "string",
							"name": "_cid",
							"type": "string"
						},
						{
							"internalType": "string",
							"name": "_fileName",
							"type": "string"
						},
						{
							"internalType": "uint256",
							"name": "_fileSize",
							"type": "uint256"
						},
						{
							"internalType": "string",
							"name": "_contentType",
							"type": "string"
						}
					],
					"name": "storeProof",
					"outputs": [],
					"stateMutability": "nonpayable",
					"type": "function"
				},
				{
					"inputs": [],
					"name": "totalProofs",
					"outputs": [
						{
							"internalType": "uint256",
							"name": "",
							"type": "uint256"
						}
					],
					"stateMutability": "view",
					"type": "function"
				}
			],
			"devdoc": {
				"details": "针对 Go Indexer 架构优化的 Web3 原生存证合约。 核心原则：链上只存共识必须的最小数据，业务描述数据全部打入 Event 供链下索引。",
				"kind": "dev",
				"methods": {
					"storeProof(bytes32,string,string,uint256,string)": {
						"details": "存入凭证"
					}
				},
				"title": "ProofStore",
				"version": 1
			},
			"evm": {
				"assembly": "    /* \"ProofStore.sol\":272:2792  contract ProofStore {... */\n  mstore(0x40, 0x80)\n  callvalue\n  dup1\n  iszero\n  tag_1\n  jumpi\n  revert(0x00, 0x00)\ntag_1:\n  pop\n  dataSize(sub_0)\n  dup1\n  dataOffset(sub_0)\n  0x00\n  codecopy\n  0x00\n  return\nstop\n\nsub_0: assembly {\n        /* \"ProofStore.sol\":272:2792  contract ProofStore {... */\n      mstore(0x40, 0x80)\n      callvalue\n      dup1\n      iszero\n      tag_1\n      jumpi\n      revert(0x00, 0x00)\n    tag_1:\n      pop\n      jumpi(tag_2, lt(calldatasize, 0x04))\n      shr(0xe0, calldataload(0x00))\n      dup1\n      0x1627212c\n      eq\n      tag_3\n      jumpi\n      dup1\n      0x1b80bb3a\n      eq\n      tag_4\n      jumpi\n      dup1\n      0x2ded3568\n      eq\n      tag_5\n      jumpi\n      dup1\n      0x444d95b0\n      eq\n      tag_6\n      jumpi\n      dup1\n      0x9e2aa6eb\n      eq\n      tag_7\n      jumpi\n    tag_2:\n      revert(0x00, 0x00)\n        /* \"ProofStore.sol\":2665:2790  function isProofExists(bytes32 _fileHash) public view returns (bool) {... */\n    tag_3:\n      tag_8\n      0x04\n      dup1\n      calldatasize\n      sub\n      dup2\n      add\n      swap1\n      tag_9\n      swap2\n      swap1\n      tag_10\n      jump\t// in\n    tag_9:\n      tag_11\n      jump\t// in\n    tag_8:\n      mload(0x40)\n      tag_12\n      swap2\n      swap1\n      tag_13\n      jump\t// in\n    tag_12:\n      mload(0x40)\n      dup1\n      swap2\n      sub\n      swap1\n      return\n        /* \"ProofStore.sol\":2323:2659  function getProof(... */\n    tag_4:\n      tag_14\n      0x04\n      dup1\n      calldatasize\n      sub\n      dup2\n      add\n      swap1\n      tag_15\n      swap2\n      swap1\n      tag_10\n      jump\t// in\n    tag_15:\n      tag_16\n      jump\t// in\n    tag_14:\n      mload(0x40)\n      tag_17\n      swap4\n      swap3\n      swap2\n      swap1\n      tag_18\n      jump\t// in\n    tag_17:\n      mload(0x40)\n      dup1\n      swap2\n      sub\n      swap1\n      return\n        /* \"ProofStore.sol\":807:833  uint256 public totalProofs */\n    tag_5:\n      tag_19\n      tag_20\n      jump\t// in\n    tag_19:\n      mload(0x40)\n      tag_21\n      swap2\n      swap1\n      tag_22\n      jump\t// in\n    tag_21:\n      mload(0x40)\n      dup1\n      swap2\n      sub\n      swap1\n      return\n        /* \"ProofStore.sol\":726:765  mapping(bytes32 => Proof) public proofs */\n    tag_6:\n      tag_23\n      0x04\n      dup1\n      calldatasize\n      sub\n      dup2\n      add\n      swap1\n      tag_24\n      swap2\n      swap1\n      tag_10\n      jump\t// in\n    tag_24:\n      tag_25\n      jump\t// in\n    tag_23:\n      mload(0x40)\n      tag_26\n      swap4\n      swap3\n      swap2\n      swap1\n      tag_18\n      jump\t// in\n    tag_26:\n      mload(0x40)\n      dup1\n      swap2\n      sub\n      swap1\n      return\n        /* \"ProofStore.sol\":1302:2317  function storeProof(... */\n    tag_7:\n      tag_27\n      0x04\n      dup1\n      calldatasize\n      sub\n      dup2\n      add\n      swap1\n      tag_28\n      swap2\n      swap1\n      tag_29\n      jump\t// in\n    tag_28:\n      tag_30\n      jump\t// in\n    tag_27:\n      stop\n        /* \"ProofStore.sol\":2665:2790  function isProofExists(bytes32 _fileHash) public view returns (bool) {... */\n    tag_11:\n        /* \"ProofStore.sol\":2728:2732  bool */\n      0x00\n        /* \"ProofStore.sol\":2782:2783  0 */\n      0x00\n        /* \"ProofStore.sol\":2751:2757  proofs */\n      0x00\n        /* \"ProofStore.sol\":2751:2768  proofs[_fileHash] */\n      0x00\n        /* \"ProofStore.sol\":2758:2767  _fileHash */\n      dup5\n        /* \"ProofStore.sol\":2751:2768  proofs[_fileHash] */\n      dup2\n      mstore\n      0x20\n      add\n      swap1\n      dup2\n      mstore\n      0x20\n      add\n      0x00\n      keccak256\n        /* \"ProofStore.sol\":2751:2778  proofs[_fileHash].timestamp */\n      0x02\n      add\n      sload\n        /* \"ProofStore.sol\":2751:2783  proofs[_fileHash].timestamp != 0 */\n      eq\n      iszero\n        /* \"ProofStore.sol\":2744:2783  return proofs[_fileHash].timestamp != 0 */\n      swap1\n      pop\n        /* \"ProofStore.sol\":2665:2790  function isProofExists(bytes32 _fileHash) public view returns (bool) {... */\n      swap2\n      swap1\n      pop\n      jump\t// out\n        /* \"ProofStore.sol\":2323:2659  function getProof(... */\n    tag_16:\n        /* \"ProofStore.sol\":2419:2432  address owner */\n      0x00\n        /* \"ProofStore.sol\":2434:2451  string memory cid */\n      0x60\n        /* \"ProofStore.sol\":2453:2470  uint256 timestamp */\n      0x00\n        /* \"ProofStore.sol\":2486:2504  Proof memory proof */\n      0x00\n        /* \"ProofStore.sol\":2507:2513  proofs */\n      0x00\n        /* \"ProofStore.sol\":2507:2524  proofs[_fileHash] */\n      0x00\n        /* \"ProofStore.sol\":2514:2523  _fileHash */\n      dup7\n        /* \"ProofStore.sol\":2507:2524  proofs[_fileHash] */\n      dup2\n      mstore\n      0x20\n      add\n      swap1\n      dup2\n      mstore\n      0x20\n      add\n      0x00\n      keccak256\n        /* \"ProofStore.sol\":2486:2524  Proof memory proof = proofs[_fileHash] */\n      mload(0x40)\n      dup1\n      0x60\n      add\n      0x40\n      mstore\n      swap1\n      dup2\n      0x00\n      dup3\n      add\n      0x00\n      swap1\n      sload\n      swap1\n      0x0100\n      exp\n      swap1\n      div\n      0xffffffffffffffffffffffffffffffffffffffff\n      and\n      0xffffffffffffffffffffffffffffffffffffffff\n      and\n      0xffffffffffffffffffffffffffffffffffffffff\n      and\n      dup2\n      mstore\n      0x20\n      add\n      0x01\n      dup3\n      add\n      dup1\n      sload\n      tag_33\n      swap1\n      tag_34\n      jump\t// in\n    tag_33:\n      dup1\n      0x1f\n      add\n      0x20\n      dup1\n      swap2\n      div\n      mul\n      0x20\n      add\n      mload(0x40)\n      swap1\n      dup2\n      add\n      0x40\n      mstore\n      dup1\n      swap3\n      swap2\n      swap1\n      dup2\n      dup2\n      mstore\n      0x20\n      add\n      dup3\n      dup1\n      sload\n      tag_35\n      swap1\n      tag_34\n      jump\t// in\n    tag_35:\n      dup1\n      iszero\n      tag_36\n      jumpi\n      dup1\n      0x1f\n      lt\n      tag_37\n      jumpi\n      0x0100\n      dup1\n      dup4\n      sload\n      div\n      mul\n      dup4\n      mstore\n      swap2\n      0x20\n      add\n      swap2\n      jump(tag_36)\n    tag_37:\n      dup3\n      add\n      swap2\n      swap1\n      0x00\n      mstore\n      keccak256(0x00, 0x20)\n      swap1\n    tag_38:\n      dup2\n      sload\n      dup2\n      mstore\n      swap1\n      0x01\n      add\n      swap1\n      0x20\n      add\n      dup1\n      dup4\n      gt\n      tag_38\n      jumpi\n      dup3\n      swap1\n      sub\n      0x1f\n      and\n      dup3\n      add\n      swap2\n    tag_36:\n      pop\n      pop\n      pop\n      pop\n      pop\n      dup2\n      mstore\n      0x20\n      add\n      0x02\n      dup3\n      add\n      sload\n      dup2\n      mstore\n      pop\n      pop\n      swap1\n      pop\n        /* \"ProofStore.sol\":2561:2562  0 */\n      0x00\n        /* \"ProofStore.sol\":2542:2547  proof */\n      dup2\n        /* \"ProofStore.sol\":2542:2557  proof.timestamp */\n      0x40\n      add\n      mload\n        /* \"ProofStore.sol\":2542:2562  proof.timestamp != 0 */\n      sub\n        /* \"ProofStore.sol\":2534:2594  require(proof.timestamp != 0, \"ProofStore: Proof not found\") */\n      tag_39\n      jumpi\n      mload(0x40)\n      0x08c379a000000000000000000000000000000000000000000000000000000000\n      dup2\n      mstore\n      0x04\n      add\n      tag_40\n      swap1\n      tag_41\n      jump\t// in\n    tag_40:\n      mload(0x40)\n      dup1\n      swap2\n      sub\n      swap1\n      revert\n    tag_39:\n        /* \"ProofStore.sol\":2612:2617  proof */\n      dup1\n        /* \"ProofStore.sol\":2612:2623  proof.owner */\n      0x00\n      add\n      mload\n        /* \"ProofStore.sol\":2625:2630  proof */\n      dup2\n        /* \"ProofStore.sol\":2625:2634  proof.cid */\n      0x20\n      add\n      mload\n        /* \"ProofStore.sol\":2636:2641  proof */\n      dup3\n        /* \"ProofStore.sol\":2636:2651  proof.timestamp */\n      0x40\n      add\n      mload\n        /* \"ProofStore.sol\":2604:2652  return (proof.owner, proof.cid, proof.timestamp) */\n      swap4\n      pop\n      swap4\n      pop\n      swap4\n      pop\n      pop\n        /* \"ProofStore.sol\":2323:2659  function getProof(... */\n      swap2\n      swap4\n      swap1\n      swap3\n      pop\n      jump\t// out\n        /* \"ProofStore.sol\":807:833  uint256 public totalProofs */\n    tag_20:\n      sload(0x01)\n      dup2\n      jump\t// out\n        /* \"ProofStore.sol\":726:765  mapping(bytes32 => Proof) public proofs */\n    tag_25:\n      mstore(0x20, 0x00)\n      dup1\n      0x00\n      mstore\n      keccak256(0x00, 0x40)\n      0x00\n      swap2\n      pop\n      swap1\n      pop\n      dup1\n      0x00\n      add\n      0x00\n      swap1\n      sload\n      swap1\n      0x0100\n      exp\n      swap1\n      div\n      0xffffffffffffffffffffffffffffffffffffffff\n      and\n      swap1\n      dup1\n      0x01\n      add\n      dup1\n      sload\n      tag_42\n      swap1\n      tag_34\n      jump\t// in\n    tag_42:\n      dup1\n      0x1f\n      add\n      0x20\n      dup1\n      swap2\n      div\n      mul\n      0x20\n      add\n      mload(0x40)\n      swap1\n      dup2\n      add\n      0x40\n      mstore\n      dup1\n      swap3\n      swap2\n      swap1\n      dup2\n      dup2\n      mstore\n      0x20\n      add\n      dup3\n      dup1\n      sload\n      tag_43\n      swap1\n      tag_34\n      jump\t// in\n    tag_43:\n      dup1\n      iszero\n      tag_44\n      jumpi\n      dup1\n      0x1f\n      lt\n      tag_45\n      jumpi\n      0x0100\n      dup1\n      dup4\n      sload\n      div\n      mul\n      dup4\n      mstore\n      swap2\n      0x20\n      add\n      swap2\n      jump(tag_44)\n    tag_45:\n      dup3\n      add\n      swap2\n      swap1\n      0x00\n      mstore\n      keccak256(0x00, 0x20)\n      swap1\n    tag_46:\n      dup2\n      sload\n      dup2\n      mstore\n      swap1\n      0x01\n      add\n      swap1\n      0x20\n      add\n      dup1\n      dup4\n      gt\n      tag_46\n      jumpi\n      dup3\n      swap1\n      sub\n      0x1f\n      and\n      dup3\n      add\n      swap2\n    tag_44:\n      pop\n      pop\n      pop\n      pop\n      pop\n      swap1\n      dup1\n      0x02\n      add\n      sload\n      swap1\n      pop\n      dup4\n      jump\t// out\n        /* \"ProofStore.sol\":1302:2317  function storeProof(... */\n    tag_30:\n        /* \"ProofStore.sol\":1607:1628  bytes memory cidBytes */\n      0x00\n        /* \"ProofStore.sol\":1637:1641  _cid */\n      dup5\n        /* \"ProofStore.sol\":1607:1642  bytes memory cidBytes = bytes(_cid) */\n      swap1\n      pop\n        /* \"ProofStore.sol\":1691:1692  0 */\n      0x00\n        /* \"ProofStore.sol\":1673:1681  cidBytes */\n      dup2\n        /* \"ProofStore.sol\":1673:1688  cidBytes.length */\n      mload\n        /* \"ProofStore.sol\":1673:1692  cidBytes.length > 0 */\n      gt\n        /* \"ProofStore.sol\":1673:1729  cidBytes.length > 0 && cidBytes.length <= MAX_CID_LENGTH */\n      dup1\n      iszero\n      tag_48\n      jumpi\n      pop\n        /* \"ProofStore.sol\":425:428  128 */\n      0x80\n        /* \"ProofStore.sol\":1696:1704  cidBytes */\n      dup2\n        /* \"ProofStore.sol\":1696:1711  cidBytes.length */\n      mload\n        /* \"ProofStore.sol\":1696:1729  cidBytes.length <= MAX_CID_LENGTH */\n      gt\n      iszero\n        /* \"ProofStore.sol\":1673:1729  cidBytes.length > 0 && cidBytes.length <= MAX_CID_LENGTH */\n    tag_48:\n        /* \"ProofStore.sol\":1652:1778  require(... */\n      tag_49\n      jumpi\n      mload(0x40)\n      0x08c379a000000000000000000000000000000000000000000000000000000000\n      dup2\n      mstore\n      0x04\n      add\n      tag_50\n      swap1\n      tag_51\n      jump\t// in\n    tag_50:\n      mload(0x40)\n      dup1\n      swap2\n      sub\n      swap1\n      revert\n    tag_49:\n        /* \"ProofStore.sol\":1877:1878  0 */\n      0x00\n        /* \"ProofStore.sol\":1846:1852  proofs */\n      0x00\n        /* \"ProofStore.sol\":1846:1863  proofs[_fileHash] */\n      0x00\n        /* \"ProofStore.sol\":1853:1862  _fileHash */\n      dup9\n        /* \"ProofStore.sol\":1846:1863  proofs[_fileHash] */\n      dup2\n      mstore\n      0x20\n      add\n      swap1\n      dup2\n      mstore\n      0x20\n      add\n      0x00\n      keccak256\n        /* \"ProofStore.sol\":1846:1873  proofs[_fileHash].timestamp */\n      0x02\n      add\n      sload\n        /* \"ProofStore.sol\":1846:1878  proofs[_fileHash].timestamp == 0 */\n      eq\n        /* \"ProofStore.sol\":1825:1940  require(... */\n      tag_52\n      jumpi\n      mload(0x40)\n      0x08c379a000000000000000000000000000000000000000000000000000000000\n      dup2\n      mstore\n      0x04\n      add\n      tag_53\n      swap1\n      tag_54\n      jump\t// in\n    tag_53:\n      mload(0x40)\n      dup1\n      swap2\n      sub\n      swap1\n      revert\n    tag_52:\n        /* \"ProofStore.sol\":1971:2082  Proof({... */\n      mload(0x40)\n      dup1\n      0x60\n      add\n      0x40\n      mstore\n      dup1\n        /* \"ProofStore.sol\":1998:2008  msg.sender */\n      caller\n        /* \"ProofStore.sol\":1971:2082  Proof({... */\n      0xffffffffffffffffffffffffffffffffffffffff\n      and\n      dup2\n      mstore\n      0x20\n      add\n        /* \"ProofStore.sol\":2027:2031  _cid */\n      dup7\n        /* \"ProofStore.sol\":1971:2082  Proof({... */\n      dup2\n      mstore\n      0x20\n      add\n        /* \"ProofStore.sol\":2056:2071  block.timestamp */\n      timestamp\n        /* \"ProofStore.sol\":1971:2082  Proof({... */\n      dup2\n      mstore\n      pop\n        /* \"ProofStore.sol\":1951:1957  proofs */\n      0x00\n        /* \"ProofStore.sol\":1951:1968  proofs[_fileHash] */\n      0x00\n        /* \"ProofStore.sol\":1958:1967  _fileHash */\n      dup9\n        /* \"ProofStore.sol\":1951:1968  proofs[_fileHash] */\n      dup2\n      mstore\n      0x20\n      add\n      swap1\n      dup2\n      mstore\n      0x20\n      add\n      0x00\n      keccak256\n        /* \"ProofStore.sol\":1951:2082  proofs[_fileHash] = Proof({... */\n      0x00\n      dup3\n      add\n      mload\n      dup2\n      0x00\n      add\n      exp(0x0100, 0x00)\n      dup2\n      sload\n      dup2\n      0xffffffffffffffffffffffffffffffffffffffff\n      mul\n      not\n      and\n      swap1\n      dup4\n      0xffffffffffffffffffffffffffffffffffffffff\n      and\n      mul\n      or\n      swap1\n      sstore\n      pop\n      0x20\n      dup3\n      add\n      mload\n      dup2\n      0x01\n      add\n      swap1\n      dup2\n      tag_55\n      swap2\n      swap1\n      tag_56\n      jump\t// in\n    tag_55:\n      pop\n      0x40\n      dup3\n      add\n      mload\n      dup2\n      0x02\n      add\n      sstore\n      swap1\n      pop\n      pop\n        /* \"ProofStore.sol\":2093:2104  totalProofs */\n      0x01\n      0x00\n        /* \"ProofStore.sol\":2093:2106  totalProofs++ */\n      dup2\n      sload\n      dup1\n      swap3\n      swap2\n      swap1\n      tag_57\n      swap1\n      tag_58\n      jump\t// in\n    tag_57:\n      swap2\n      swap1\n      pop\n      sstore\n      pop\n        /* \"ProofStore.sol\":2171:2181  msg.sender */\n      caller\n        /* \"ProofStore.sol\":2122:2310  ProofCreated(... */\n      0xffffffffffffffffffffffffffffffffffffffff\n      and\n        /* \"ProofStore.sol\":2148:2157  _fileHash */\n      dup7\n        /* \"ProofStore.sol\":2122:2310  ProofCreated(... */\n      0xc53fdb167ae4e7df825301fdf14ad957c5b7346bfc927cda990f52e27b3476a6\n        /* \"ProofStore.sol\":2195:2199  _cid */\n      dup8\n        /* \"ProofStore.sol\":2213:2228  block.timestamp */\n      timestamp\n        /* \"ProofStore.sol\":2242:2251  _fileName */\n      dup9\n        /* \"ProofStore.sol\":2265:2274  _fileSize */\n      dup9\n        /* \"ProofStore.sol\":2288:2300  _contentType */\n      dup9\n        /* \"ProofStore.sol\":2122:2310  ProofCreated(... */\n      mload(0x40)\n      tag_59\n      swap6\n      swap5\n      swap4\n      swap3\n      swap2\n      swap1\n      tag_60\n      jump\t// in\n    tag_59:\n      mload(0x40)\n      dup1\n      swap2\n      sub\n      swap1\n      log3\n        /* \"ProofStore.sol\":1545:2317  {... */\n      pop\n        /* \"ProofStore.sol\":1302:2317  function storeProof(... */\n      pop\n      pop\n      pop\n      pop\n      pop\n      jump\t// out\n        /* \"#utility.yul\":7:82   */\n    tag_61:\n        /* \"#utility.yul\":40:46   */\n      0x00\n        /* \"#utility.yul\":73:75   */\n      0x40\n        /* \"#utility.yul\":67:76   */\n      mload\n        /* \"#utility.yul\":57:76   */\n      swap1\n      pop\n        /* \"#utility.yul\":7:82   */\n      swap1\n      jump\t// out\n        /* \"#utility.yul\":88:205   */\n    tag_62:\n        /* \"#utility.yul\":197:198   */\n      0x00\n        /* \"#utility.yul\":194:195   */\n      0x00\n        /* \"#utility.yul\":187:199   */\n      revert\n        /* \"#utility.yul\":211:328   */\n    tag_63:\n        /* \"#utility.yul\":320:321   */\n      0x00\n        /* \"#utility.yul\":317:318   */\n      0x00\n        /* \"#utility.yul\":310:322   */\n      revert\n        /* \"#utility.yul\":334:411   */\n    tag_64:\n        /* \"#utility.yul\":371:378   */\n      0x00\n        /* \"#utility.yul\":400:405   */\n      dup2\n        /* \"#utility.yul\":389:405   */\n      swap1\n      pop\n        /* \"#utility.yul\":334:411   */\n      swap2\n      swap1\n      pop\n      jump\t// out\n        /* \"#utility.yul\":417:539   */\n    tag_65:\n        /* \"#utility.yul\":490:514   */\n      tag_119\n        /* \"#utility.yul\":508:513   */\n      dup2\n        /* \"#utility.yul\":490:514   */\n      tag_64\n      jump\t// in\n    tag_119:\n        /* \"#utility.yul\":483:488   */\n      dup2\n        /* \"#utility.yul\":480:515   */\n      eq\n        /* \"#utility.yul\":470:533   */\n      tag_120\n      jumpi\n        /* \"#utility.yul\":529:530   */\n      0x00\n        /* \"#utility.yul\":526:527   */\n      0x00\n        /* \"#utility.yul\":519:531   */\n      revert\n        /* \"#utility.yul\":470:533   */\n    tag_120:\n        /* \"#utility.yul\":417:539   */\n      pop\n      jump\t// out\n        /* \"#utility.yul\":545:684   */\n    tag_66:\n        /* \"#utility.yul\":591:596   */\n      0x00\n        /* \"#utility.yul\":629:635   */\n      dup2\n        /* \"#utility.yul\":616:636   */\n      calldataload\n        /* \"#utility.yul\":607:636   */\n      swap1\n      pop\n        /* \"#utility.yul\":645:678   */\n      tag_122\n        /* \"#utility.yul\":672:677   */\n      dup2\n        /* \"#utility.yul\":645:678   */\n      tag_65\n      jump\t// in\n    tag_122:\n        /* \"#utility.yul\":545:684   */\n      swap3\n      swap2\n      pop\n      pop\n      jump\t// out\n        /* \"#utility.yul\":690:1019   */\n    tag_10:\n        /* \"#utility.yul\":749:755   */\n      0x00\n        /* \"#utility.yul\":798:800   */\n      0x20\n        /* \"#utility.yul\":786:795   */\n      dup3\n        /* \"#utility.yul\":777:784   */\n      dup5\n        /* \"#utility.yul\":773:796   */\n      sub\n        /* \"#utility.yul\":769:801   */\n      slt\n        /* \"#utility.yul\":766:885   */\n      iszero\n      tag_124\n      jumpi\n        /* \"#utility.yul\":804:883   */\n      tag_125\n      tag_62\n      jump\t// in\n    tag_125:\n        /* \"#utility.yul\":766:885   */\n    tag_124:\n        /* \"#utility.yul\":924:925   */\n      0x00\n        /* \"#utility.yul\":949:1002   */\n      tag_126\n        /* \"#utility.yul\":994:1001   */\n      dup5\n        /* \"#utility.yul\":985:991   */\n      dup3\n        /* \"#utility.yul\":974:983   */\n      dup6\n        /* \"#utility.yul\":970:992   */\n      add\n        /* \"#utility.yul\":949:1002   */\n      tag_66\n      jump\t// in\n    tag_126:\n        /* \"#utility.yul\":939:1002   */\n      swap2\n      pop\n        /* \"#utility.yul\":895:1012   */\n      pop\n        /* \"#utility.yul\":690:1019   */\n      swap3\n      swap2\n      pop\n      pop\n      jump\t// out\n        /* \"#utility.yul\":1025:1115   */\n    tag_67:\n        /* \"#utility.yul\":1059:1066   */\n      0x00\n        /* \"#utility.yul\":1102:1107   */\n      dup2\n        /* \"#utility.yul\":1095:1108   */\n      iszero\n        /* \"#utility.yul\":1088:1109   */\n      iszero\n        /* \"#utility.yul\":1077:1109   */\n      swap1\n      pop\n        /* \"#utility.yul\":1025:1115   */\n      swap2\n      swap1\n      pop\n      jump\t// out\n        /* \"#utility.yul\":1121:1230   */\n    tag_68:\n        /* \"#utility.yul\":1202:1223   */\n      tag_129\n        /* \"#utility.yul\":1217:1222   */\n      dup2\n        /* \"#utility.yul\":1202:1223   */\n      tag_67\n      jump\t// in\n    tag_129:\n        /* \"#utility.yul\":1197:1200   */\n      dup3\n        /* \"#utility.yul\":1190:1224   */\n      mstore\n        /* \"#utility.yul\":1121:1230   */\n      pop\n      pop\n      jump\t// out\n        /* \"#utility.yul\":1236:1446   */\n    tag_13:\n        /* \"#utility.yul\":1323:1327   */\n      0x00\n        /* \"#utility.yul\":1361:1363   */\n      0x20\n        /* \"#utility.yul\":1350:1359   */\n      dup3\n        /* \"#utility.yul\":1346:1364   */\n      add\n        /* \"#utility.yul\":1338:1364   */\n      swap1\n      pop\n        /* \"#utility.yul\":1374:1439   */\n      tag_131\n        /* \"#utility.yul\":1436:1437   */\n      0x00\n        /* \"#utility.yul\":1425:1434   */\n      dup4\n        /* \"#utility.yul\":1421:1438   */\n      add\n        /* \"#utility.yul\":1412:1418   */\n      dup5\n        /* \"#utility.yul\":1374:1439   */\n      tag_68\n      jump\t// in\n    tag_131:\n        /* \"#utility.yul\":1236:1446   */\n      swap3\n      swap2\n      pop\n      pop\n      jump\t// out\n        /* \"#utility.yul\":1452:1578   */\n    tag_69:\n        /* \"#utility.yul\":1489:1496   */\n      0x00\n        /* \"#utility.yul\":1529:1571   */\n      0xffffffffffffffffffffffffffffffffffffffff\n        /* \"#utility.yul\":1522:1527   */\n      dup3\n        /* \"#utility.yul\":1518:1572   */\n      and\n        /* \"#utility.yul\":1507:1572   */\n      swap1\n      pop\n        /* \"#utility.yul\":1452:1578   */\n      swap2\n      swap1\n      pop\n      jump\t// out\n        /* \"#utility.yul\":1584:1680   */\n    tag_70:\n        /* \"#utility.yul\":1621:1628   */\n      0x00\n        /* \"#utility.yul\":1650:1674   */\n      tag_134\n        /* \"#utility.yul\":1668:1673   */\n      dup3\n        /* \"#utility.yul\":1650:1674   */\n      tag_69\n      jump\t// in\n    tag_134:\n        /* \"#utility.yul\":1639:1674   */\n      swap1\n      pop\n        /* \"#utility.yul\":1584:1680   */\n      swap2\n      swap1\n      pop\n      jump\t// out\n        /* \"#utility.yul\":1686:1804   */\n    tag_71:\n        /* \"#utility.yul\":1773:1797   */\n      tag_136\n        /* \"#utility.yul\":1791:1796   */\n      dup2\n        /* \"#utility.yul\":1773:1797   */\n      tag_70\n      jump\t// in\n    tag_136:\n        /* \"#utility.yul\":1768:1771   */\n      dup3\n        /* \"#utility.yul\":1761:1798   */\n      mstore\n        /* \"#utility.yul\":1686:1804   */\n      pop\n      pop\n      jump\t// out\n        /* \"#utility.yul\":1810:1909   */\n    tag_72:\n        /* \"#utility.yul\":1862:1868   */\n      0x00\n        /* \"#utility.yul\":1896:1901   */\n      dup2\n        /* \"#utility.yul\":1890:1902   */\n      mload\n        /* \"#utility.yul\":1880:1902   */\n      swap1\n      pop\n        /* \"#utility.yul\":1810:1909   */\n      swap2\n      swap1\n      pop\n      jump\t// out\n        /* \"#utility.yul\":1915:2084   */\n    tag_73:\n        /* \"#utility.yul\":1999:2010   */\n      0x00\n        /* \"#utility.yul\":2033:2039   */\n      dup3\n        /* \"#utility.yul\":2028:2031   */\n      dup3\n        /* \"#utility.yul\":2021:2040   */\n      mstore\n        /* \"#utility.yul\":2073:2077   */\n      0x20\n        /* \"#utility.yul\":2068:2071   */\n      dup3\n        /* \"#utility.yul\":2064:2078   */\n      add\n        /* \"#utility.yul\":2049:2078   */\n      swap1\n      pop\n        /* \"#utility.yul\":1915:2084   */\n      swap3\n      swap2\n      pop\n      pop\n      jump\t// out\n        /* \"#utility.yul\":2090:2229   */\n    tag_74:\n        /* \"#utility.yul\":2179:2185   */\n      dup3\n        /* \"#utility.yul\":2174:2177   */\n      dup2\n        /* \"#utility.yul\":2169:2172   */\n      dup4\n        /* \"#utility.yul\":2163:2186   */\n      mcopy\n        /* \"#utility.yul\":2220:2221   */\n      0x00\n        /* \"#utility.yul\":2211:2217   */\n      dup4\n        /* \"#utility.yul\":2206:2209   */\n      dup4\n        /* \"#utility.yul\":2202:2218   */\n      add\n        /* \"#utility.yul\":2195:2222   */\n      mstore\n        /* \"#utility.yul\":2090:2229   */\n      pop\n      pop\n      pop\n      jump\t// out\n        /* \"#utility.yul\":2235:2337   */\n    tag_75:\n        /* \"#utility.yul\":2276:2282   */\n      0x00\n        /* \"#utility.yul\":2327:2329   */\n      0x1f\n        /* \"#utility.yul\":2323:2330   */\n      not\n        /* \"#utility.yul\":2318:2320   */\n      0x1f\n        /* \"#utility.yul\":2311:2316   */\n      dup4\n        /* \"#utility.yul\":2307:2321   */\n      add\n        /* \"#utility.yul\":2303:2331   */\n      and\n        /* \"#utility.yul\":2293:2331   */\n      swap1\n      pop\n        /* \"#utility.yul\":2235:2337   */\n      swap2\n      swap1\n      pop\n      jump\t// out\n        /* \"#utility.yul\":2343:2720   */\n    tag_76:\n        /* \"#utility.yul\":2431:2434   */\n      0x00\n        /* \"#utility.yul\":2459:2498   */\n      tag_142\n        /* \"#utility.yul\":2492:2497   */\n      dup3\n        /* \"#utility.yul\":2459:2498   */\n      tag_72\n      jump\t// in\n    tag_142:\n        /* \"#utility.yul\":2514:2585   */\n      tag_143\n        /* \"#utility.yul\":2578:2584   */\n      dup2\n        /* \"#utility.yul\":2573:2576   */\n      dup6\n        /* \"#utility.yul\":2514:2585   */\n      tag_73\n      jump\t// in\n    tag_143:\n        /* \"#utility.yul\":2507:2585   */\n      swap4\n      pop\n        /* \"#utility.yul\":2594:2659   */\n      tag_144\n        /* \"#utility.yul\":2652:2658   */\n      dup2\n        /* \"#utility.yul\":2647:2650   */\n      dup6\n        /* \"#utility.yul\":2640:2644   */\n      0x20\n        /* \"#utility.yul\":2633:2638   */\n      dup7\n        /* \"#utility.yul\":2629:2645   */\n      add\n        /* \"#utility.yul\":2594:2659   */\n      tag_74\n      jump\t// in\n    tag_144:\n        /* \"#utility.yul\":2684:2713   */\n      tag_145\n        /* \"#utility.yul\":2706:2712   */\n      dup2\n        /* \"#utility.yul\":2684:2713   */\n      tag_75\n      jump\t// in\n    tag_145:\n        /* \"#utility.yul\":2679:2682   */\n      dup5\n        /* \"#utility.yul\":2675:2714   */\n      add\n        /* \"#utility.yul\":2668:2714   */\n      swap2\n      pop\n        /* \"#utility.yul\":2435:2720   */\n      pop\n        /* \"#utility.yul\":2343:2720   */\n      swap3\n      swap2\n      pop\n      pop\n      jump\t// out\n        /* \"#utility.yul\":2726:2803   */\n    tag_77:\n        /* \"#utility.yul\":2763:2770   */\n      0x00\n        /* \"#utility.yul\":2792:2797   */\n      dup2\n        /* \"#utility.yul\":2781:2797   */\n      swap1\n      pop\n        /* \"#utility.yul\":2726:2803   */\n      swap2\n      swap1\n      pop\n      jump\t// out\n        /* \"#utility.yul\":2809:2927   */\n    tag_78:\n        /* \"#utility.yul\":2896:2920   */\n      tag_148\n        /* \"#utility.yul\":2914:2919   */\n      dup2\n        /* \"#utility.yul\":2896:2920   */\n      tag_77\n      jump\t// in\n    tag_148:\n        /* \"#utility.yul\":2891:2894   */\n      dup3\n        /* \"#utility.yul\":2884:2921   */\n      mstore\n        /* \"#utility.yul\":2809:2927   */\n      pop\n      pop\n      jump\t// out\n        /* \"#utility.yul\":2933:3466   */\n    tag_18:\n        /* \"#utility.yul\":3102:3106   */\n      0x00\n        /* \"#utility.yul\":3140:3142   */\n      0x60\n        /* \"#utility.yul\":3129:3138   */\n      dup3\n        /* \"#utility.yul\":3125:3143   */\n      add\n        /* \"#utility.yul\":3117:3143   */\n      swap1\n      pop\n        /* \"#utility.yul\":3153:3224   */\n      tag_150\n        /* \"#utility.yul\":3221:3222   */\n      0x00\n        /* \"#utility.yul\":3210:3219   */\n      dup4\n        /* \"#utility.yul\":3206:3223   */\n      add\n        /* \"#utility.yul\":3197:3203   */\n      dup7\n        /* \"#utility.yul\":3153:3224   */\n      tag_71\n      jump\t// in\n    tag_150:\n        /* \"#utility.yul\":3271:3280   */\n      dup2\n        /* \"#utility.yul\":3265:3269   */\n      dup2\n        /* \"#utility.yul\":3261:3281   */\n      sub\n        /* \"#utility.yul\":3256:3258   */\n      0x20\n        /* \"#utility.yul\":3245:3254   */\n      dup4\n        /* \"#utility.yul\":3241:3259   */\n      add\n        /* \"#utility.yul\":3234:3282   */\n      mstore\n        /* \"#utility.yul\":3299:3377   */\n      tag_151\n        /* \"#utility.yul\":3372:3376   */\n      dup2\n        /* \"#utility.yul\":3363:3369   */\n      dup6\n        /* \"#utility.yul\":3299:3377   */\n      tag_76\n      jump\t// in\n    tag_151:\n        /* \"#utility.yul\":3291:3377   */\n      swap1\n      pop\n        /* \"#utility.yul\":3387:3459   */\n      tag_152\n        /* \"#utility.yul\":3455:3457   */\n      0x40\n        /* \"#utility.yul\":3444:3453   */\n      dup4\n        /* \"#utility.yul\":3440:3458   */\n      add\n        /* \"#utility.yul\":3431:3437   */\n      dup5\n        /* \"#utility.yul\":3387:3459   */\n      tag_78\n      jump\t// in\n    tag_152:\n        /* \"#utility.yul\":2933:3466   */\n      swap5\n      swap4\n      pop\n      pop\n      pop\n      pop\n      jump\t// out\n        /* \"#utility.yul\":3472:3694   */\n    tag_22:\n        /* \"#utility.yul\":3565:3569   */\n      0x00\n        /* \"#utility.yul\":3603:3605   */\n      0x20\n        /* \"#utility.yul\":3592:3601   */\n      dup3\n        /* \"#utility.yul\":3588:3606   */\n      add\n        /* \"#utility.yul\":3580:3606   */\n      swap1\n      pop\n        /* \"#utility.yul\":3616:3687   */\n      tag_154\n        /* \"#utility.yul\":3684:3685   */\n      0x00\n        /* \"#utility.yul\":3673:3682   */\n      dup4\n        /* \"#utility.yul\":3669:3686   */\n      add\n        /* \"#utility.yul\":3660:3666   */\n      dup5\n        /* \"#utility.yul\":3616:3687   */\n      tag_78\n      jump\t// in\n    tag_154:\n        /* \"#utility.yul\":3472:3694   */\n      swap3\n      swap2\n      pop\n      pop\n      jump\t// out\n        /* \"#utility.yul\":3700:3817   */\n    tag_79:\n        /* \"#utility.yul\":3809:3810   */\n      0x00\n        /* \"#utility.yul\":3806:3807   */\n      0x00\n        /* \"#utility.yul\":3799:3811   */\n      revert\n        /* \"#utility.yul\":3823:3940   */\n    tag_80:\n        /* \"#utility.yul\":3932:3933   */\n      0x00\n        /* \"#utility.yul\":3929:3930   */\n      0x00\n        /* \"#utility.yul\":3922:3934   */\n      revert\n        /* \"#utility.yul\":3946:4126   */\n    tag_81:\n        /* \"#utility.yul\":3994:4071   */\n      0x4e487b7100000000000000000000000000000000000000000000000000000000\n        /* \"#utility.yul\":3991:3992   */\n      0x00\n        /* \"#utility.yul\":3984:4072   */\n      mstore\n        /* \"#utility.yul\":4091:4095   */\n      0x41\n        /* \"#utility.yul\":4088:4089   */\n      0x04\n        /* \"#utility.yul\":4081:4096   */\n      mstore\n        /* \"#utility.yul\":4115:4119   */\n      0x24\n        /* \"#utility.yul\":4112:4113   */\n      0x00\n        /* \"#utility.yul\":4105:4120   */\n      revert\n        /* \"#utility.yul\":4132:4413   */\n    tag_82:\n        /* \"#utility.yul\":4215:4242   */\n      tag_159\n        /* \"#utility.yul\":4237:4241   */\n      dup3\n        /* \"#utility.yul\":4215:4242   */\n      tag_75\n      jump\t// in\n    tag_159:\n        /* \"#utility.yul\":4207:4213   */\n      dup2\n        /* \"#utility.yul\":4203:4243   */\n      add\n        /* \"#utility.yul\":4345:4351   */\n      dup2\n        /* \"#utility.yul\":4333:4343   */\n      dup2\n        /* \"#utility.yul\":4330:4352   */\n      lt\n        /* \"#utility.yul\":4309:4327   */\n      0xffffffffffffffff\n        /* \"#utility.yul\":4297:4307   */\n      dup3\n        /* \"#utility.yul\":4294:4328   */\n      gt\n        /* \"#utility.yul\":4291:4353   */\n      or\n        /* \"#utility.yul\":4288:4376   */\n      iszero\n      tag_160\n      jumpi\n        /* \"#utility.yul\":4356:4374   */\n      tag_161\n      tag_81\n      jump\t// in\n    tag_161:\n        /* \"#utility.yul\":4288:4376   */\n    tag_160:\n        /* \"#utility.yul\":4396:4406   */\n      dup1\n        /* \"#utility.yul\":4392:4394   */\n      0x40\n        /* \"#utility.yul\":4385:4407   */\n      mstore\n        /* \"#utility.yul\":4175:4413   */\n      pop\n        /* \"#utility.yul\":4132:4413   */\n      pop\n      pop\n      jump\t// out\n        /* \"#utility.yul\":4419:4548   */\n    tag_83:\n        /* \"#utility.yul\":4453:4459   */\n      0x00\n        /* \"#utility.yul\":4480:4500   */\n      tag_163\n      tag_61\n      jump\t// in\n    tag_163:\n        /* \"#utility.yul\":4470:4500   */\n      swap1\n      pop\n        /* \"#utility.yul\":4509:4542   */\n      tag_164\n        /* \"#utility.yul\":4537:4541   */\n      dup3\n        /* \"#utility.yul\":4529:4535   */\n      dup3\n        /* \"#utility.yul\":4509:4542   */\n      tag_82\n      jump\t// in\n    tag_164:\n        /* \"#utility.yul\":4419:4548   */\n      swap2\n      swap1\n      pop\n      jump\t// out\n        /* \"#utility.yul\":4554:4862   */\n    tag_84:\n        /* \"#utility.yul\":4616:4620   */\n      0x00\n        /* \"#utility.yul\":4706:4724   */\n      0xffffffffffffffff\n        /* \"#utility.yul\":4698:4704   */\n      dup3\n        /* \"#utility.yul\":4695:4725   */\n      gt\n        /* \"#utility.yul\":4692:4748   */\n      iszero\n      tag_166\n      jumpi\n        /* \"#utility.yul\":4728:4746   */\n      tag_167\n      tag_81\n      jump\t// in\n    tag_167:\n        /* \"#utility.yul\":4692:4748   */\n    tag_166:\n        /* \"#utility.yul\":4766:4795   */\n      tag_168\n        /* \"#utility.yul\":4788:4794   */\n      dup3\n        /* \"#utility.yul\":4766:4795   */\n      tag_75\n      jump\t// in\n    tag_168:\n        /* \"#utility.yul\":4758:4795   */\n      swap1\n      pop\n        /* \"#utility.yul\":4850:4854   */\n      0x20\n        /* \"#utility.yul\":4844:4848   */\n      dup2\n        /* \"#utility.yul\":4840:4855   */\n      add\n        /* \"#utility.yul\":4832:4855   */\n      swap1\n      pop\n        /* \"#utility.yul\":4554:4862   */\n      swap2\n      swap1\n      pop\n      jump\t// out\n        /* \"#utility.yul\":4868:5016   */\n    tag_85:\n        /* \"#utility.yul\":4966:4972   */\n      dup3\n        /* \"#utility.yul\":4961:4964   */\n      dup2\n        /* \"#utility.yul\":4956:4959   */\n      dup4\n        /* \"#utility.yul\":4943:4973   */\n      calldatacopy\n        /* \"#utility.yul\":5007:5008   */\n      0x00\n        /* \"#utility.yul\":4998:5004   */\n      dup4\n        /* \"#utility.yul\":4993:4996   */\n      dup4\n        /* \"#utility.yul\":4989:5005   */\n      add\n        /* \"#utility.yul\":4982:5009   */\n      mstore\n        /* \"#utility.yul\":4868:5016   */\n      pop\n      pop\n      pop\n      jump\t// out\n        /* \"#utility.yul\":5022:5447   */\n    tag_86:\n        /* \"#utility.yul\":5100:5105   */\n      0x00\n        /* \"#utility.yul\":5125:5191   */\n      tag_171\n        /* \"#utility.yul\":5141:5190   */\n      tag_172\n        /* \"#utility.yul\":5183:5189   */\n      dup5\n        /* \"#utility.yul\":5141:5190   */\n      tag_84\n      jump\t// in\n    tag_172:\n        /* \"#utility.yul\":5125:5191   */\n      tag_83\n      jump\t// in\n    tag_171:\n        /* \"#utility.yul\":5116:5191   */\n      swap1\n      pop\n        /* \"#utility.yul\":5214:5220   */\n      dup3\n        /* \"#utility.yul\":5207:5212   */\n      dup2\n        /* \"#utility.yul\":5200:5221   */\n      mstore\n        /* \"#utility.yul\":5252:5256   */\n      0x20\n        /* \"#utility.yul\":5245:5250   */\n      dup2\n        /* \"#utility.yul\":5241:5257   */\n      add\n        /* \"#utility.yul\":5290:5293   */\n      dup5\n        /* \"#utility.yul\":5281:5287   */\n      dup5\n        /* \"#utility.yul\":5276:5279   */\n      dup5\n        /* \"#utility.yul\":5272:5288   */\n      add\n        /* \"#utility.yul\":5269:5294   */\n      gt\n        /* \"#utility.yul\":5266:5378   */\n      iszero\n      tag_173\n      jumpi\n        /* \"#utility.yul\":5297:5376   */\n      tag_174\n      tag_80\n      jump\t// in\n    tag_174:\n        /* \"#utility.yul\":5266:5378   */\n    tag_173:\n        /* \"#utility.yul\":5387:5441   */\n      tag_175\n        /* \"#utility.yul\":5434:5440   */\n      dup5\n        /* \"#utility.yul\":5429:5432   */\n      dup3\n        /* \"#utility.yul\":5424:5427   */\n      dup6\n        /* \"#utility.yul\":5387:5441   */\n      tag_85\n      jump\t// in\n    tag_175:\n        /* \"#utility.yul\":5106:5447   */\n      pop\n        /* \"#utility.yul\":5022:5447   */\n      swap4\n      swap3\n      pop\n      pop\n      pop\n      jump\t// out\n        /* \"#utility.yul\":5467:5807   */\n    tag_87:\n        /* \"#utility.yul\":5523:5528   */\n      0x00\n        /* \"#utility.yul\":5572:5575   */\n      dup3\n        /* \"#utility.yul\":5565:5569   */\n      0x1f\n        /* \"#utility.yul\":5557:5563   */\n      dup4\n        /* \"#utility.yul\":5553:5570   */\n      add\n        /* \"#utility.yul\":5549:5576   */\n      slt\n        /* \"#utility.yul\":5539:5661   */\n      tag_177\n      jumpi\n        /* \"#utility.yul\":5580:5659   */\n      tag_178\n      tag_79\n      jump\t// in\n    tag_178:\n        /* \"#utility.yul\":5539:5661   */\n    tag_177:\n        /* \"#utility.yul\":5697:5703   */\n      dup2\n        /* \"#utility.yul\":5684:5704   */\n      calldataload\n        /* \"#utility.yul\":5722:5801   */\n      tag_179\n        /* \"#utility.yul\":5797:5800   */\n      dup5\n        /* \"#utility.yul\":5789:5795   */\n      dup3\n        /* \"#utility.yul\":5782:5786   */\n      0x20\n        /* \"#utility.yul\":5774:5780   */\n      dup7\n        /* \"#utility.yul\":5770:5787   */\n      add\n        /* \"#utility.yul\":5722:5801   */\n      tag_86\n      jump\t// in\n    tag_179:\n        /* \"#utility.yul\":5713:5801   */\n      swap2\n      pop\n        /* \"#utility.yul\":5529:5807   */\n      pop\n        /* \"#utility.yul\":5467:5807   */\n      swap3\n      swap2\n      pop\n      pop\n      jump\t// out\n        /* \"#utility.yul\":5813:5935   */\n    tag_88:\n        /* \"#utility.yul\":5886:5910   */\n      tag_181\n        /* \"#utility.yul\":5904:5909   */\n      dup2\n        /* \"#utility.yul\":5886:5910   */\n      tag_77\n      jump\t// in\n    tag_181:\n        /* \"#utility.yul\":5879:5884   */\n      dup2\n        /* \"#utility.yul\":5876:5911   */\n      eq\n        /* \"#utility.yul\":5866:5929   */\n      tag_182\n      jumpi\n        /* \"#utility.yul\":5925:5926   */\n      0x00\n        /* \"#utility.yul\":5922:5923   */\n      0x00\n        /* \"#utility.yul\":5915:5927   */\n      revert\n        /* \"#utility.yul\":5866:5929   */\n    tag_182:\n        /* \"#utility.yul\":5813:5935   */\n      pop\n      jump\t// out\n        /* \"#utility.yul\":5941:6080   */\n    tag_89:\n        /* \"#utility.yul\":5987:5992   */\n      0x00\n        /* \"#utility.yul\":6025:6031   */\n      dup2\n        /* \"#utility.yul\":6012:6032   */\n      calldataload\n        /* \"#utility.yul\":6003:6032   */\n      swap1\n      pop\n        /* \"#utility.yul\":6041:6074   */\n      tag_184\n        /* \"#utility.yul\":6068:6073   */\n      dup2\n        /* \"#utility.yul\":6041:6074   */\n      tag_88\n      jump\t// in\n    tag_184:\n        /* \"#utility.yul\":5941:6080   */\n      swap3\n      swap2\n      pop\n      pop\n      jump\t// out\n        /* \"#utility.yul\":6086:7537   */\n    tag_29:\n        /* \"#utility.yul\":6211:6217   */\n      0x00\n        /* \"#utility.yul\":6219:6225   */\n      0x00\n        /* \"#utility.yul\":6227:6233   */\n      0x00\n        /* \"#utility.yul\":6235:6241   */\n      0x00\n        /* \"#utility.yul\":6243:6249   */\n      0x00\n        /* \"#utility.yul\":6292:6295   */\n      0xa0\n        /* \"#utility.yul\":6280:6289   */\n      dup7\n        /* \"#utility.yul\":6271:6278   */\n      dup9\n        /* \"#utility.yul\":6267:6290   */\n      sub\n        /* \"#utility.yul\":6263:6296   */\n      slt\n        /* \"#utility.yul\":6260:6380   */\n      iszero\n      tag_186\n      jumpi\n        /* \"#utility.yul\":6299:6378   */\n      tag_187\n      tag_62\n      jump\t// in\n    tag_187:\n        /* \"#utility.yul\":6260:6380   */\n    tag_186:\n        /* \"#utility.yul\":6419:6420   */\n      0x00\n        /* \"#utility.yul\":6444:6497   */\n      tag_188\n        /* \"#utility.yul\":6489:6496   */\n      dup9\n        /* \"#utility.yul\":6480:6486   */\n      dup3\n        /* \"#utility.yul\":6469:6478   */\n      dup10\n        /* \"#utility.yul\":6465:6487   */\n      add\n        /* \"#utility.yul\":6444:6497   */\n      tag_66\n      jump\t// in\n    tag_188:\n        /* \"#utility.yul\":6434:6497   */\n      swap6\n      pop\n        /* \"#utility.yul\":6390:6507   */\n      pop\n        /* \"#utility.yul\":6574:6576   */\n      0x20\n        /* \"#utility.yul\":6563:6572   */\n      dup7\n        /* \"#utility.yul\":6559:6577   */\n      add\n        /* \"#utility.yul\":6546:6578   */\n      calldataload\n        /* \"#utility.yul\":6605:6623   */\n      0xffffffffffffffff\n        /* \"#utility.yul\":6597:6603   */\n      dup2\n        /* \"#utility.yul\":6594:6624   */\n      gt\n        /* \"#utility.yul\":6591:6708   */\n      iszero\n      tag_189\n      jumpi\n        /* \"#utility.yul\":6627:6706   */\n      tag_190\n      tag_63\n      jump\t// in\n    tag_190:\n        /* \"#utility.yul\":6591:6708   */\n    tag_189:\n        /* \"#utility.yul\":6732:6795   */\n      tag_191\n        /* \"#utility.yul\":6787:6794   */\n      dup9\n        /* \"#utility.yul\":6778:6784   */\n      dup3\n        /* \"#utility.yul\":6767:6776   */\n      dup10\n        /* \"#utility.yul\":6763:6785   */\n      add\n        /* \"#utility.yul\":6732:6795   */\n      tag_87\n      jump\t// in\n    tag_191:\n        /* \"#utility.yul\":6722:6795   */\n      swap5\n      pop\n        /* \"#utility.yul\":6517:6805   */\n      pop\n        /* \"#utility.yul\":6872:6874   */\n      0x40\n        /* \"#utility.yul\":6861:6870   */\n      dup7\n        /* \"#utility.yul\":6857:6875   */\n      add\n        /* \"#utility.yul\":6844:6876   */\n      calldataload\n        /* \"#utility.yul\":6903:6921   */\n      0xffffffffffffffff\n        /* \"#utility.yul\":6895:6901   */\n      dup2\n        /* \"#utility.yul\":6892:6922   */\n      gt\n        /* \"#utility.yul\":6889:7006   */\n      iszero\n      tag_192\n      jumpi\n        /* \"#utility.yul\":6925:7004   */\n      tag_193\n      tag_63\n      jump\t// in\n    tag_193:\n        /* \"#utility.yul\":6889:7006   */\n    tag_192:\n        /* \"#utility.yul\":7030:7093   */\n      tag_194\n        /* \"#utility.yul\":7085:7092   */\n      dup9\n        /* \"#utility.yul\":7076:7082   */\n      dup3\n        /* \"#utility.yul\":7065:7074   */\n      dup10\n        /* \"#utility.yul\":7061:7083   */\n      add\n        /* \"#utility.yul\":7030:7093   */\n      tag_87\n      jump\t// in\n    tag_194:\n        /* \"#utility.yul\":7020:7093   */\n      swap4\n      pop\n        /* \"#utility.yul\":6815:7103   */\n      pop\n        /* \"#utility.yul\":7142:7144   */\n      0x60\n        /* \"#utility.yul\":7168:7221   */\n      tag_195\n        /* \"#utility.yul\":7213:7220   */\n      dup9\n        /* \"#utility.yul\":7204:7210   */\n      dup3\n        /* \"#utility.yul\":7193:7202   */\n      dup10\n        /* \"#utility.yul\":7189:7211   */\n      add\n        /* \"#utility.yul\":7168:7221   */\n      tag_89\n      jump\t// in\n    tag_195:\n        /* \"#utility.yul\":7158:7221   */\n      swap3\n      pop\n        /* \"#utility.yul\":7113:7231   */\n      pop\n        /* \"#utility.yul\":7298:7301   */\n      0x80\n        /* \"#utility.yul\":7287:7296   */\n      dup7\n        /* \"#utility.yul\":7283:7302   */\n      add\n        /* \"#utility.yul\":7270:7303   */\n      calldataload\n        /* \"#utility.yul\":7330:7348   */\n      0xffffffffffffffff\n        /* \"#utility.yul\":7322:7328   */\n      dup2\n        /* \"#utility.yul\":7319:7349   */\n      gt\n        /* \"#utility.yul\":7316:7433   */\n      iszero\n      tag_196\n      jumpi\n        /* \"#utility.yul\":7352:7431   */\n      tag_197\n      tag_63\n      jump\t// in\n    tag_197:\n        /* \"#utility.yul\":7316:7433   */\n    tag_196:\n        /* \"#utility.yul\":7457:7520   */\n      tag_198\n        /* \"#utility.yul\":7512:7519   */\n      dup9\n        /* \"#utility.yul\":7503:7509   */\n      dup3\n        /* \"#utility.yul\":7492:7501   */\n      dup10\n        /* \"#utility.yul\":7488:7510   */\n      add\n        /* \"#utility.yul\":7457:7520   */\n      tag_87\n      jump\t// in\n    tag_198:\n        /* \"#utility.yul\":7447:7520   */\n      swap2\n      pop\n        /* \"#utility.yul\":7241:7530   */\n      pop\n        /* \"#utility.yul\":6086:7537   */\n      swap3\n      swap6\n      pop\n      swap3\n      swap6\n      swap1\n      swap4\n      pop\n      jump\t// out\n        /* \"#utility.yul\":7543:7723   */\n    tag_90:\n        /* \"#utility.yul\":7591:7668   */\n      0x4e487b7100000000000000000000000000000000000000000000000000000000\n        /* \"#utility.yul\":7588:7589   */\n      0x00\n        /* \"#utility.yul\":7581:7669   */\n      mstore\n        /* \"#utility.yul\":7688:7692   */\n      0x22\n        /* \"#utility.yul\":7685:7686   */\n      0x04\n        /* \"#utility.yul\":7678:7693   */\n      mstore\n        /* \"#utility.yul\":7712:7716   */\n      0x24\n        /* \"#utility.yul\":7709:7710   */\n      0x00\n        /* \"#utility.yul\":7702:7717   */\n      revert\n        /* \"#utility.yul\":7729:8049   */\n    tag_34:\n        /* \"#utility.yul\":7773:7779   */\n      0x00\n        /* \"#utility.yul\":7810:7811   */\n      0x02\n        /* \"#utility.yul\":7804:7808   */\n      dup3\n        /* \"#utility.yul\":7800:7812   */\n      div\n        /* \"#utility.yul\":7790:7812   */\n      swap1\n      pop\n        /* \"#utility.yul\":7857:7858   */\n      0x01\n        /* \"#utility.yul\":7851:7855   */\n      dup3\n        /* \"#utility.yul\":7847:7859   */\n      and\n        /* \"#utility.yul\":7878:7896   */\n      dup1\n        /* \"#utility.yul\":7868:7949   */\n      tag_201\n      jumpi\n        /* \"#utility.yul\":7934:7938   */\n      0x7f\n        /* \"#utility.yul\":7926:7932   */\n      dup3\n        /* \"#utility.yul\":7922:7939   */\n      and\n        /* \"#utility.yul\":7912:7939   */\n      swap2\n      pop\n        /* \"#utility.yul\":7868:7949   */\n    tag_201:\n        /* \"#utility.yul\":7996:7998   */\n      0x20\n        /* \"#utility.yul\":7988:7994   */\n      dup3\n        /* \"#utility.yul\":7985:7999   */\n      lt\n        /* \"#utility.yul\":7965:7983   */\n      dup2\n        /* \"#utility.yul\":7962:8000   */\n      sub\n        /* \"#utility.yul\":7959:8043   */\n      tag_202\n      jumpi\n        /* \"#utility.yul\":8015:8033   */\n      tag_203\n      tag_90\n      jump\t// in\n    tag_203:\n        /* \"#utility.yul\":7959:8043   */\n    tag_202:\n        /* \"#utility.yul\":7780:8049   */\n      pop\n        /* \"#utility.yul\":7729:8049   */\n      swap2\n      swap1\n      pop\n      jump\t// out\n        /* \"#utility.yul\":8055:8232   */\n    tag_91:\n        /* \"#utility.yul\":8195:8224   */\n      0x50726f6f6653746f72653a2050726f6f66206e6f7420666f756e640000000000\n        /* \"#utility.yul\":8191:8192   */\n      0x00\n        /* \"#utility.yul\":8183:8189   */\n      dup3\n        /* \"#utility.yul\":8179:8193   */\n      add\n        /* \"#utility.yul\":8172:8225   */\n      mstore\n        /* \"#utility.yul\":8055:8232   */\n      pop\n      jump\t// out\n        /* \"#utility.yul\":8238:8604   */\n    tag_92:\n        /* \"#utility.yul\":8380:8383   */\n      0x00\n        /* \"#utility.yul\":8401:8468   */\n      tag_206\n        /* \"#utility.yul\":8465:8467   */\n      0x1b\n        /* \"#utility.yul\":8460:8463   */\n      dup4\n        /* \"#utility.yul\":8401:8468   */\n      tag_73\n      jump\t// in\n    tag_206:\n        /* \"#utility.yul\":8394:8468   */\n      swap2\n      pop\n        /* \"#utility.yul\":8477:8570   */\n      tag_207\n        /* \"#utility.yul\":8566:8569   */\n      dup3\n        /* \"#utility.yul\":8477:8570   */\n      tag_91\n      jump\t// in\n    tag_207:\n        /* \"#utility.yul\":8595:8597   */\n      0x20\n        /* \"#utility.yul\":8590:8593   */\n      dup3\n        /* \"#utility.yul\":8586:8598   */\n      add\n        /* \"#utility.yul\":8579:8598   */\n      swap1\n      pop\n        /* \"#utility.yul\":8238:8604   */\n      swap2\n      swap1\n      pop\n      jump\t// out\n        /* \"#utility.yul\":8610:9029   */\n    tag_41:\n        /* \"#utility.yul\":8776:8780   */\n      0x00\n        /* \"#utility.yul\":8814:8816   */\n      0x20\n        /* \"#utility.yul\":8803:8812   */\n      dup3\n        /* \"#utility.yul\":8799:8817   */\n      add\n        /* \"#utility.yul\":8791:8817   */\n      swap1\n      pop\n        /* \"#utility.yul\":8863:8872   */\n      dup2\n        /* \"#utility.yul\":8857:8861   */\n      dup2\n        /* \"#utility.yul\":8853:8873   */\n      sub\n        /* \"#utility.yul\":8849:8850   */\n      0x00\n        /* \"#utility.yul\":8838:8847   */\n      dup4\n        /* \"#utility.yul\":8834:8851   */\n      add\n        /* \"#utility.yul\":8827:8874   */\n      mstore\n        /* \"#utility.yul\":8891:9022   */\n      tag_209\n        /* \"#utility.yul\":9017:9021   */\n      dup2\n        /* \"#utility.yul\":8891:9022   */\n      tag_92\n      jump\t// in\n    tag_209:\n        /* \"#utility.yul\":8883:9022   */\n      swap1\n      pop\n        /* \"#utility.yul\":8610:9029   */\n      swap2\n      swap1\n      pop\n      jump\t// out\n        /* \"#utility.yul\":9035:9208   */\n    tag_93:\n        /* \"#utility.yul\":9175:9200   */\n      0x50726f6f6653746f72653a20496e76616c696420434944000000000000000000\n        /* \"#utility.yul\":9171:9172   */\n      0x00\n        /* \"#utility.yul\":9163:9169   */\n      dup3\n        /* \"#utility.yul\":9159:9173   */\n      add\n        /* \"#utility.yul\":9152:9201   */\n      mstore\n        /* \"#utility.yul\":9035:9208   */\n      pop\n      jump\t// out\n        /* \"#utility.yul\":9214:9580   */\n    tag_94:\n        /* \"#utility.yul\":9356:9359   */\n      0x00\n        /* \"#utility.yul\":9377:9444   */\n      tag_212\n        /* \"#utility.yul\":9441:9443   */\n      0x17\n        /* \"#utility.yul\":9436:9439   */\n      dup4\n        /* \"#utility.yul\":9377:9444   */\n      tag_73\n      jump\t// in\n    tag_212:\n        /* \"#utility.yul\":9370:9444   */\n      swap2\n      pop\n        /* \"#utility.yul\":9453:9546   */\n      tag_213\n        /* \"#utility.yul\":9542:9545   */\n      dup3\n        /* \"#utility.yul\":9453:9546   */\n      tag_93\n      jump\t// in\n    tag_213:\n        /* \"#utility.yul\":9571:9573   */\n      0x20\n        /* \"#utility.yul\":9566:9569   */\n      dup3\n        /* \"#utility.yul\":9562:9574   */\n      add\n        /* \"#utility.yul\":9555:9574   */\n      swap1\n      pop\n        /* \"#utility.yul\":9214:9580   */\n      swap2\n      swap1\n      pop\n      jump\t// out\n        /* \"#utility.yul\":9586:10005   */\n    tag_51:\n        /* \"#utility.yul\":9752:9756   */\n      0x00\n        /* \"#utility.yul\":9790:9792   */\n      0x20\n        /* \"#utility.yul\":9779:9788   */\n      dup3\n        /* \"#utility.yul\":9775:9793   */\n      add\n        /* \"#utility.yul\":9767:9793   */\n      swap1\n      pop\n        /* \"#utility.yul\":9839:9848   */\n      dup2\n        /* \"#utility.yul\":9833:9837   */\n      dup2\n        /* \"#utility.yul\":9829:9849   */\n      sub\n        /* \"#utility.yul\":9825:9826   */\n      0x00\n        /* \"#utility.yul\":9814:9823   */\n      dup4\n        /* \"#utility.yul\":9810:9827   */\n      add\n        /* \"#utility.yul\":9803:9850   */\n      mstore\n        /* \"#utility.yul\":9867:9998   */\n      tag_215\n        /* \"#utility.yul\":9993:9997   */\n      dup2\n        /* \"#utility.yul\":9867:9998   */\n      tag_94\n      jump\t// in\n    tag_215:\n        /* \"#utility.yul\":9859:9998   */\n      swap1\n      pop\n        /* \"#utility.yul\":9586:10005   */\n      swap2\n      swap1\n      pop\n      jump\t// out\n        /* \"#utility.yul\":10011:10234   */\n    tag_95:\n        /* \"#utility.yul\":10151:10185   */\n      0x50726f6f6653746f72653a2046696c65206861736820616c7265616479206578\n        /* \"#utility.yul\":10147:10148   */\n      0x00\n        /* \"#utility.yul\":10139:10145   */\n      dup3\n        /* \"#utility.yul\":10135:10149   */\n      add\n        /* \"#utility.yul\":10128:10186   */\n      mstore\n        /* \"#utility.yul\":10220:10226   */\n      0x6973747300000000000000000000000000000000000000000000000000000000\n        /* \"#utility.yul\":10215:10217   */\n      0x20\n        /* \"#utility.yul\":10207:10213   */\n      dup3\n        /* \"#utility.yul\":10203:10218   */\n      add\n        /* \"#utility.yul\":10196:10227   */\n      mstore\n        /* \"#utility.yul\":10011:10234   */\n      pop\n      jump\t// out\n        /* \"#utility.yul\":10240:10606   */\n    tag_96:\n        /* \"#utility.yul\":10382:10385   */\n      0x00\n        /* \"#utility.yul\":10403:10470   */\n      tag_218\n        /* \"#utility.yul\":10467:10469   */\n      0x24\n        /* \"#utility.yul\":10462:10465   */\n      dup4\n        /* \"#utility.yul\":10403:10470   */\n      tag_73\n      jump\t// in\n    tag_218:\n        /* \"#utility.yul\":10396:10470   */\n      swap2\n      pop\n        /* \"#utility.yul\":10479:10572   */\n      tag_219\n        /* \"#utility.yul\":10568:10571   */\n      dup3\n        /* \"#utility.yul\":10479:10572   */\n      tag_95\n      jump\t// in\n    tag_219:\n        /* \"#utility.yul\":10597:10599   */\n      0x40\n        /* \"#utility.yul\":10592:10595   */\n      dup3\n        /* \"#utility.yul\":10588:10600   */\n      add\n        /* \"#utility.yul\":10581:10600   */\n      swap1\n      pop\n        /* \"#utility.yul\":10240:10606   */\n      swap2\n      swap1\n      pop\n      jump\t// out\n        /* \"#utility.yul\":10612:11031   */\n    tag_54:\n        /* \"#utility.yul\":10778:10782   */\n      0x00\n        /* \"#utility.yul\":10816:10818   */\n      0x20\n        /* \"#utility.yul\":10805:10814   */\n      dup3\n        /* \"#utility.yul\":10801:10819   */\n      add\n        /* \"#utility.yul\":10793:10819   */\n      swap1\n      pop\n        /* \"#utility.yul\":10865:10874   */\n      dup2\n        /* \"#utility.yul\":10859:10863   */\n      dup2\n        /* \"#utility.yul\":10855:10875   */\n      sub\n        /* \"#utility.yul\":10851:10852   */\n      0x00\n        /* \"#utility.yul\":10840:10849   */\n      dup4\n        /* \"#utility.yul\":10836:10853   */\n      add\n        /* \"#utility.yul\":10829:10876   */\n      mstore\n        /* \"#utility.yul\":10893:11024   */\n      tag_221\n        /* \"#utility.yul\":11019:11023   */\n      dup2\n        /* \"#utility.yul\":10893:11024   */\n      tag_96\n      jump\t// in\n    tag_221:\n        /* \"#utility.yul\":10885:11024   */\n      swap1\n      pop\n        /* \"#utility.yul\":10612:11031   */\n      swap2\n      swap1\n      pop\n      jump\t// out\n        /* \"#utility.yul\":11037:11178   */\n    tag_97:\n        /* \"#utility.yul\":11086:11090   */\n      0x00\n        /* \"#utility.yul\":11109:11112   */\n      dup2\n        /* \"#utility.yul\":11101:11112   */\n      swap1\n      pop\n        /* \"#utility.yul\":11132:11135   */\n      dup2\n        /* \"#utility.yul\":11129:11130   */\n      0x00\n        /* \"#utility.yul\":11122:11136   */\n      mstore\n        /* \"#utility.yul\":11166:11170   */\n      0x20\n        /* \"#utility.yul\":11163:11164   */\n      0x00\n        /* \"#utility.yul\":11153:11171   */\n      keccak256\n        /* \"#utility.yul\":11145:11171   */\n      swap1\n      pop\n        /* \"#utility.yul\":11037:11178   */\n      swap2\n      swap1\n      pop\n      jump\t// out\n        /* \"#utility.yul\":11184:11277   */\n    tag_98:\n        /* \"#utility.yul\":11221:11227   */\n      0x00\n        /* \"#utility.yul\":11268:11270   */\n      0x20\n        /* \"#utility.yul\":11263:11265   */\n      0x1f\n        /* \"#utility.yul\":11256:11261   */\n      dup4\n        /* \"#utility.yul\":11252:11266   */\n      add\n        /* \"#utility.yul\":11248:11271   */\n      div\n        /* \"#utility.yul\":11238:11271   */\n      swap1\n      pop\n        /* \"#utility.yul\":11184:11277   */\n      swap2\n      swap1\n      pop\n      jump\t// out\n        /* \"#utility.yul\":11283:11390   */\n    tag_99:\n        /* \"#utility.yul\":11327:11335   */\n      0x00\n        /* \"#utility.yul\":11377:11382   */\n      dup3\n        /* \"#utility.yul\":11371:11375   */\n      dup3\n        /* \"#utility.yul\":11367:11383   */\n      shl\n        /* \"#utility.yul\":11346:11383   */\n      swap1\n      pop\n        /* \"#utility.yul\":11283:11390   */\n      swap3\n      swap2\n      pop\n      pop\n      jump\t// out\n        /* \"#utility.yul\":11396:11789   */\n    tag_100:\n        /* \"#utility.yul\":11465:11471   */\n      0x00\n        /* \"#utility.yul\":11515:11516   */\n      0x08\n        /* \"#utility.yul\":11503:11513   */\n      dup4\n        /* \"#utility.yul\":11499:11517   */\n      mul\n        /* \"#utility.yul\":11538:11635   */\n      tag_226\n        /* \"#utility.yul\":11568:11634   */\n      0xffffffffffffffffffffffffffffffffffffffffffffffffffffffffffffffff\n        /* \"#utility.yul\":11557:11566   */\n      dup3\n        /* \"#utility.yul\":11538:11635   */\n      tag_99\n      jump\t// in\n    tag_226:\n        /* \"#utility.yul\":11656:11695   */\n      tag_227\n        /* \"#utility.yul\":11686:11694   */\n      dup7\n        /* \"#utility.yul\":11675:11684   */\n      dup4\n        /* \"#utility.yul\":11656:11695   */\n      tag_99\n      jump\t// in\n    tag_227:\n        /* \"#utility.yul\":11644:11695   */\n      swap6\n      pop\n        /* \"#utility.yul\":11728:11732   */\n      dup1\n        /* \"#utility.yul\":11724:11733   */\n      not\n        /* \"#utility.yul\":11717:11722   */\n      dup5\n        /* \"#utility.yul\":11713:11734   */\n      and\n        /* \"#utility.yul\":11704:11734   */\n      swap4\n      pop\n        /* \"#utility.yul\":11777:11781   */\n      dup1\n        /* \"#utility.yul\":11767:11775   */\n      dup7\n        /* \"#utility.yul\":11763:11782   */\n      and\n        /* \"#utility.yul\":11756:11761   */\n      dup5\n        /* \"#utility.yul\":11753:11783   */\n      or\n        /* \"#utility.yul\":11743:11783   */\n      swap3\n      pop\n        /* \"#utility.yul\":11472:11789   */\n      pop\n      pop\n        /* \"#utility.yul\":11396:11789   */\n      swap4\n      swap3\n      pop\n      pop\n      pop\n      jump\t// out\n        /* \"#utility.yul\":11795:11855   */\n    tag_101:\n        /* \"#utility.yul\":11823:11826   */\n      0x00\n        /* \"#utility.yul\":11844:11849   */\n      dup2\n        /* \"#utility.yul\":11837:11849   */\n      swap1\n      pop\n        /* \"#utility.yul\":11795:11855   */\n      swap2\n      swap1\n      pop\n      jump\t// out\n        /* \"#utility.yul\":11861:12003   */\n    tag_102:\n        /* \"#utility.yul\":11911:11920   */\n      0x00\n        /* \"#utility.yul\":11944:11997   */\n      tag_230\n        /* \"#utility.yul\":11962:11996   */\n      tag_231\n        /* \"#utility.yul\":11971:11995   */\n      tag_232\n        /* \"#utility.yul\":11989:11994   */\n      dup5\n        /* \"#utility.yul\":11971:11995   */\n      tag_77\n      jump\t// in\n    tag_232:\n        /* \"#utility.yul\":11962:11996   */\n      tag_101\n      jump\t// in\n    tag_231:\n        /* \"#utility.yul\":11944:11997   */\n      tag_77\n      jump\t// in\n    tag_230:\n        /* \"#utility.yul\":11931:11997   */\n      swap1\n      pop\n        /* \"#utility.yul\":11861:12003   */\n      swap2\n      swap1\n      pop\n      jump\t// out\n        /* \"#utility.yul\":12009:12084   */\n    tag_103:\n        /* \"#utility.yul\":12052:12055   */\n      0x00\n        /* \"#utility.yul\":12073:12078   */\n      dup2\n        /* \"#utility.yul\":12066:12078   */\n      swap1\n      pop\n        /* \"#utility.yul\":12009:12084   */\n      swap2\n      swap1\n      pop\n      jump\t// out\n        /* \"#utility.yul\":12090:12359   */\n    tag_104:\n        /* \"#utility.yul\":12200:12239   */\n      tag_235\n        /* \"#utility.yul\":12231:12238   */\n      dup4\n        /* \"#utility.yul\":12200:12239   */\n      tag_102\n      jump\t// in\n    tag_235:\n        /* \"#utility.yul\":12261:12352   */\n      tag_236\n        /* \"#utility.yul\":12310:12351   */\n      tag_237\n        /* \"#utility.yul\":12334:12350   */\n      dup3\n        /* \"#utility.yul\":12310:12351   */\n      tag_103\n      jump\t// in\n    tag_237:\n        /* \"#utility.yul\":12302:12308   */\n      dup5\n        /* \"#utility.yul\":12295:12299   */\n      dup5\n        /* \"#utility.yul\":12289:12300   */\n      sload\n        /* \"#utility.yul\":12261:12352   */\n      tag_100\n      jump\t// in\n    tag_236:\n        /* \"#utility.yul\":12255:12259   */\n      dup3\n        /* \"#utility.yul\":12248:12353   */\n      sstore\n        /* \"#utility.yul\":12166:12359   */\n      pop\n        /* \"#utility.yul\":12090:12359   */\n      pop\n      pop\n      pop\n      jump\t// out\n        /* \"#utility.yul\":12365:12438   */\n    tag_105:\n        /* \"#utility.yul\":12410:12413   */\n      0x00\n        /* \"#utility.yul\":12431:12432   */\n      0x00\n        /* \"#utility.yul\":12424:12432   */\n      swap1\n      pop\n        /* \"#utility.yul\":12365:12438   */\n      swap1\n      jump\t// out\n        /* \"#utility.yul\":12444:12633   */\n    tag_106:\n        /* \"#utility.yul\":12521:12553   */\n      tag_240\n      tag_105\n      jump\t// in\n    tag_240:\n        /* \"#utility.yul\":12562:12627   */\n      tag_241\n        /* \"#utility.yul\":12620:12626   */\n      dup2\n        /* \"#utility.yul\":12612:12618   */\n      dup5\n        /* \"#utility.yul\":12606:12610   */\n      dup5\n        /* \"#utility.yul\":12562:12627   */\n      tag_104\n      jump\t// in\n    tag_241:\n        /* \"#utility.yul\":12497:12633   */\n      pop\n        /* \"#utility.yul\":12444:12633   */\n      pop\n      pop\n      jump\t// out\n        /* \"#utility.yul\":12639:12825   */\n    tag_107:\n        /* \"#utility.yul\":12699:12819   */\n    tag_243:\n        /* \"#utility.yul\":12716:12719   */\n      dup2\n        /* \"#utility.yul\":12709:12714   */\n      dup2\n        /* \"#utility.yul\":12706:12720   */\n      lt\n        /* \"#utility.yul\":12699:12819   */\n      iszero\n      tag_245\n      jumpi\n        /* \"#utility.yul\":12770:12809   */\n      tag_246\n        /* \"#utility.yul\":12807:12808   */\n      0x00\n        /* \"#utility.yul\":12800:12805   */\n      dup3\n        /* \"#utility.yul\":12770:12809   */\n      tag_106\n      jump\t// in\n    tag_246:\n        /* \"#utility.yul\":12743:12744   */\n      0x01\n        /* \"#utility.yul\":12736:12741   */\n      dup2\n        /* \"#utility.yul\":12732:12745   */\n      add\n        /* \"#utility.yul\":12723:12745   */\n      swap1\n      pop\n        /* \"#utility.yul\":12699:12819   */\n      jump(tag_243)\n    tag_245:\n        /* \"#utility.yul\":12639:12825   */\n      pop\n      pop\n      jump\t// out\n        /* \"#utility.yul\":12831:13374   */\n    tag_108:\n        /* \"#utility.yul\":12932:12934   */\n      0x1f\n        /* \"#utility.yul\":12927:12930   */\n      dup3\n        /* \"#utility.yul\":12924:12935   */\n      gt\n        /* \"#utility.yul\":12921:13367   */\n      iszero\n      tag_248\n      jumpi\n        /* \"#utility.yul\":12966:13004   */\n      tag_249\n        /* \"#utility.yul\":12998:13003   */\n      dup2\n        /* \"#utility.yul\":12966:13004   */\n      tag_97\n      jump\t// in\n    tag_249:\n        /* \"#utility.yul\":13050:13079   */\n      tag_250\n        /* \"#utility.yul\":13068:13078   */\n      dup5\n        /* \"#utility.yul\":13050:13079   */\n      tag_98\n      jump\t// in\n    tag_250:\n        /* \"#utility.yul\":13040:13048   */\n      dup2\n        /* \"#utility.yul\":13036:13080   */\n      add\n        /* \"#utility.yul\":13233:13235   */\n      0x20\n        /* \"#utility.yul\":13221:13231   */\n      dup6\n        /* \"#utility.yul\":13218:13236   */\n      lt\n        /* \"#utility.yul\":13215:13264   */\n      iszero\n      tag_251\n      jumpi\n        /* \"#utility.yul\":13254:13262   */\n      dup2\n        /* \"#utility.yul\":13239:13262   */\n      swap1\n      pop\n        /* \"#utility.yul\":13215:13264   */\n    tag_251:\n        /* \"#utility.yul\":13277:13357   */\n      tag_252\n        /* \"#utility.yul\":13333:13355   */\n      tag_253\n        /* \"#utility.yul\":13351:13354   */\n      dup6\n        /* \"#utility.yul\":13333:13355   */\n      tag_98\n      jump\t// in\n    tag_253:\n        /* \"#utility.yul\":13323:13331   */\n      dup4\n        /* \"#utility.yul\":13319:13356   */\n      add\n        /* \"#utility.yul\":13306:13317   */\n      dup3\n        /* \"#utility.yul\":13277:13357   */\n      tag_107\n      jump\t// in\n    tag_252:\n        /* \"#utility.yul\":12936:13367   */\n      pop\n      pop\n        /* \"#utility.yul\":12921:13367   */\n    tag_248:\n        /* \"#utility.yul\":12831:13374   */\n      pop\n      pop\n      pop\n      jump\t// out\n        /* \"#utility.yul\":13380:13497   */\n    tag_109:\n        /* \"#utility.yul\":13434:13442   */\n      0x00\n        /* \"#utility.yul\":13484:13489   */\n      dup3\n        /* \"#utility.yul\":13478:13482   */\n      dup3\n        /* \"#utility.yul\":13474:13490   */\n      shr\n        /* \"#utility.yul\":13453:13490   */\n      swap1\n      pop\n        /* \"#utility.yul\":13380:13497   */\n      swap3\n      swap2\n      pop\n      pop\n      jump\t// out\n        /* \"#utility.yul\":13503:13672   */\n    tag_110:\n        /* \"#utility.yul\":13547:13553   */\n      0x00\n        /* \"#utility.yul\":13580:13631   */\n      tag_256\n        /* \"#utility.yul\":13628:13629   */\n      0x00\n        /* \"#utility.yul\":13624:13630   */\n      not\n        /* \"#utility.yul\":13616:13621   */\n      dup5\n        /* \"#utility.yul\":13613:13614   */\n      0x08\n        /* \"#utility.yul\":13609:13622   */\n      mul\n        /* \"#utility.yul\":13580:13631   */\n      tag_109\n      jump\t// in\n    tag_256:\n        /* \"#utility.yul\":13576:13632   */\n      not\n        /* \"#utility.yul\":13661:13665   */\n      dup1\n        /* \"#utility.yul\":13655:13659   */\n      dup4\n        /* \"#utility.yul\":13651:13666   */\n      and\n        /* \"#utility.yul\":13641:13666   */\n      swap2\n      pop\n        /* \"#utility.yul\":13554:13672   */\n      pop\n        /* \"#utility.yul\":13503:13672   */\n      swap3\n      swap2\n      pop\n      pop\n      jump\t// out\n        /* \"#utility.yul\":13677:13972   */\n    tag_111:\n        /* \"#utility.yul\":13753:13757   */\n      0x00\n        /* \"#utility.yul\":13899:13928   */\n      tag_258\n        /* \"#utility.yul\":13924:13927   */\n      dup4\n        /* \"#utility.yul\":13918:13922   */\n      dup4\n        /* \"#utility.yul\":13899:13928   */\n      tag_110\n      jump\t// in\n    tag_258:\n        /* \"#utility.yul\":13891:13928   */\n      swap2\n      pop\n        /* \"#utility.yul\":13961:13964   */\n      dup3\n        /* \"#utility.yul\":13958:13959   */\n      0x02\n        /* \"#utility.yul\":13954:13965   */\n      mul\n        /* \"#utility.yul\":13948:13952   */\n      dup3\n        /* \"#utility.yul\":13945:13966   */\n      or\n        /* \"#utility.yul\":13937:13966   */\n      swap1\n      pop\n        /* \"#utility.yul\":13677:13972   */\n      swap3\n      swap2\n      pop\n      pop\n      jump\t// out\n        /* \"#utility.yul\":13977:15372   */\n    tag_56:\n        /* \"#utility.yul\":14094:14131   */\n      tag_260\n        /* \"#utility.yul\":14127:14130   */\n      dup3\n        /* \"#utility.yul\":14094:14131   */\n      tag_72\n      jump\t// in\n    tag_260:\n        /* \"#utility.yul\":14196:14214   */\n      0xffffffffffffffff\n        /* \"#utility.yul\":14188:14194   */\n      dup2\n        /* \"#utility.yul\":14185:14215   */\n      gt\n        /* \"#utility.yul\":14182:14238   */\n      iszero\n      tag_261\n      jumpi\n        /* \"#utility.yul\":14218:14236   */\n      tag_262\n      tag_81\n      jump\t// in\n    tag_262:\n        /* \"#utility.yul\":14182:14238   */\n    tag_261:\n        /* \"#utility.yul\":14262:14300   */\n      tag_263\n        /* \"#utility.yul\":14294:14298   */\n      dup3\n        /* \"#utility.yul\":14288:14299   */\n      sload\n        /* \"#utility.yul\":14262:14300   */\n      tag_34\n      jump\t// in\n    tag_263:\n        /* \"#utility.yul\":14347:14414   */\n      tag_264\n        /* \"#utility.yul\":14407:14413   */\n      dup3\n        /* \"#utility.yul\":14399:14405   */\n      dup3\n        /* \"#utility.yul\":14393:14397   */\n      dup6\n        /* \"#utility.yul\":14347:14414   */\n      tag_108\n      jump\t// in\n    tag_264:\n        /* \"#utility.yul\":14441:14442   */\n      0x00\n        /* \"#utility.yul\":14465:14469   */\n      0x20\n        /* \"#utility.yul\":14452:14469   */\n      swap1\n      pop\n        /* \"#utility.yul\":14497:14499   */\n      0x1f\n        /* \"#utility.yul\":14489:14495   */\n      dup4\n        /* \"#utility.yul\":14486:14500   */\n      gt\n        /* \"#utility.yul\":14514:14515   */\n      0x01\n        /* \"#utility.yul\":14509:15127   */\n      dup2\n      eq\n      tag_266\n      jumpi\n        /* \"#utility.yul\":15171:15172   */\n      0x00\n        /* \"#utility.yul\":15188:15194   */\n      dup5\n        /* \"#utility.yul\":15185:15262   */\n      iszero\n      tag_267\n      jumpi\n        /* \"#utility.yul\":15237:15246   */\n      dup3\n        /* \"#utility.yul\":15232:15235   */\n      dup8\n        /* \"#utility.yul\":15228:15247   */\n      add\n        /* \"#utility.yul\":15222:15248   */\n      mload\n        /* \"#utility.yul\":15213:15248   */\n      swap1\n      pop\n        /* \"#utility.yul\":15185:15262   */\n    tag_267:\n        /* \"#utility.yul\":15288:15355   */\n      tag_268\n        /* \"#utility.yul\":15348:15354   */\n      dup6\n        /* \"#utility.yul\":15341:15346   */\n      dup3\n        /* \"#utility.yul\":15288:15355   */\n      tag_111\n      jump\t// in\n    tag_268:\n        /* \"#utility.yul\":15282:15286   */\n      dup7\n        /* \"#utility.yul\":15275:15356   */\n      sstore\n        /* \"#utility.yul\":15144:15366   */\n      pop\n        /* \"#utility.yul\":14479:15366   */\n      jump(tag_265)\n        /* \"#utility.yul\":14509:15127   */\n    tag_266:\n        /* \"#utility.yul\":14561:14565   */\n      0x1f\n        /* \"#utility.yul\":14557:14566   */\n      not\n        /* \"#utility.yul\":14549:14555   */\n      dup5\n        /* \"#utility.yul\":14545:14567   */\n      and\n        /* \"#utility.yul\":14595:14632   */\n      tag_269\n        /* \"#utility.yul\":14627:14631   */\n      dup7\n        /* \"#utility.yul\":14595:14632   */\n      tag_97\n      jump\t// in\n    tag_269:\n        /* \"#utility.yul\":14654:14655   */\n      0x00\n        /* \"#utility.yul\":14668:14876   */\n    tag_270:\n        /* \"#utility.yul\":14682:14689   */\n      dup3\n        /* \"#utility.yul\":14679:14680   */\n      dup2\n        /* \"#utility.yul\":14676:14690   */\n      lt\n        /* \"#utility.yul\":14668:14876   */\n      iszero\n      tag_272\n      jumpi\n        /* \"#utility.yul\":14761:14770   */\n      dup5\n        /* \"#utility.yul\":14756:14759   */\n      dup10\n        /* \"#utility.yul\":14752:14771   */\n      add\n        /* \"#utility.yul\":14746:14772   */\n      mload\n        /* \"#utility.yul\":14738:14744   */\n      dup3\n        /* \"#utility.yul\":14731:14773   */\n      sstore\n        /* \"#utility.yul\":14812:14813   */\n      0x01\n        /* \"#utility.yul\":14804:14810   */\n      dup3\n        /* \"#utility.yul\":14800:14814   */\n      add\n        /* \"#utility.yul\":14790:14814   */\n      swap2\n      pop\n        /* \"#utility.yul\":14859:14861   */\n      0x20\n        /* \"#utility.yul\":14848:14857   */\n      dup6\n        /* \"#utility.yul\":14844:14862   */\n      add\n        /* \"#utility.yul\":14831:14862   */\n      swap5\n      pop\n        /* \"#utility.yul\":14705:14709   */\n      0x20\n        /* \"#utility.yul\":14702:14703   */\n      dup2\n        /* \"#utility.yul\":14698:14710   */\n      add\n        /* \"#utility.yul\":14693:14710   */\n      swap1\n      pop\n        /* \"#utility.yul\":14668:14876   */\n      jump(tag_270)\n    tag_272:\n        /* \"#utility.yul\":14904:14910   */\n      dup7\n        /* \"#utility.yul\":14895:14902   */\n      dup4\n        /* \"#utility.yul\":14892:14911   */\n      lt\n        /* \"#utility.yul\":14889:15068   */\n      iszero\n      tag_273\n      jumpi\n        /* \"#utility.yul\":14962:14971   */\n      dup5\n        /* \"#utility.yul\":14957:14960   */\n      dup10\n        /* \"#utility.yul\":14953:14972   */\n      add\n        /* \"#utility.yul\":14947:14973   */\n      mload\n        /* \"#utility.yul\":15005:15053   */\n      tag_274\n        /* \"#utility.yul\":15047:15051   */\n      0x1f\n        /* \"#utility.yul\":15039:15045   */\n      dup10\n        /* \"#utility.yul\":15035:15052   */\n      and\n        /* \"#utility.yul\":15024:15033   */\n      dup3\n        /* \"#utility.yul\":15005:15053   */\n      tag_110\n      jump\t// in\n    tag_274:\n        /* \"#utility.yul\":14997:15003   */\n      dup4\n        /* \"#utility.yul\":14990:15054   */\n      sstore\n        /* \"#utility.yul\":14912:15068   */\n      pop\n        /* \"#utility.yul\":14889:15068   */\n    tag_273:\n        /* \"#utility.yul\":15114:15115   */\n      0x01\n        /* \"#utility.yul\":15110:15111   */\n      0x02\n        /* \"#utility.yul\":15102:15108   */\n      dup9\n        /* \"#utility.yul\":15098:15112   */\n      mul\n        /* \"#utility.yul\":15094:15116   */\n      add\n        /* \"#utility.yul\":15088:15092   */\n      dup9\n        /* \"#utility.yul\":15081:15117   */\n      sstore\n        /* \"#utility.yul\":14516:15127   */\n      pop\n      pop\n      pop\n        /* \"#utility.yul\":14479:15366   */\n    tag_265:\n      pop\n        /* \"#utility.yul\":14069:15372   */\n      pop\n      pop\n      pop\n        /* \"#utility.yul\":13977:15372   */\n      pop\n      pop\n      jump\t// out\n        /* \"#utility.yul\":15378:15558   */\n    tag_112:\n        /* \"#utility.yul\":15426:15503   */\n      0x4e487b7100000000000000000000000000000000000000000000000000000000\n        /* \"#utility.yul\":15423:15424   */\n      0x00\n        /* \"#utility.yul\":15416:15504   */\n      mstore\n        /* \"#utility.yul\":15523:15527   */\n      0x11\n        /* \"#utility.yul\":15520:15521   */\n      0x04\n        /* \"#utility.yul\":15513:15528   */\n      mstore\n        /* \"#utility.yul\":15547:15551   */\n      0x24\n        /* \"#utility.yul\":15544:15545   */\n      0x00\n        /* \"#utility.yul\":15537:15552   */\n      revert\n        /* \"#utility.yul\":15564:15797   */\n    tag_58:\n        /* \"#utility.yul\":15603:15606   */\n      0x00\n        /* \"#utility.yul\":15626:15650   */\n      tag_277\n        /* \"#utility.yul\":15644:15649   */\n      dup3\n        /* \"#utility.yul\":15626:15650   */\n      tag_77\n      jump\t// in\n    tag_277:\n        /* \"#utility.yul\":15617:15650   */\n      swap2\n      pop\n        /* \"#utility.yul\":15672:15738   */\n      0xffffffffffffffffffffffffffffffffffffffffffffffffffffffffffffffff\n        /* \"#utility.yul\":15665:15670   */\n      dup3\n        /* \"#utility.yul\":15662:15739   */\n      sub\n        /* \"#utility.yul\":15659:15762   */\n      tag_278\n      jumpi\n        /* \"#utility.yul\":15742:15760   */\n      tag_279\n      tag_112\n      jump\t// in\n    tag_279:\n        /* \"#utility.yul\":15659:15762   */\n    tag_278:\n        /* \"#utility.yul\":15789:15790   */\n      0x01\n        /* \"#utility.yul\":15782:15787   */\n      dup3\n        /* \"#utility.yul\":15778:15791   */\n      add\n        /* \"#utility.yul\":15771:15791   */\n      swap1\n      pop\n        /* \"#utility.yul\":15564:15797   */\n      swap2\n      swap1\n      pop\n      jump\t// out\n        /* \"#utility.yul\":15803:16740   */\n    tag_60:\n        /* \"#utility.yul\":16068:16072   */\n      0x00\n        /* \"#utility.yul\":16106:16109   */\n      0xa0\n        /* \"#utility.yul\":16095:16104   */\n      dup3\n        /* \"#utility.yul\":16091:16110   */\n      add\n        /* \"#utility.yul\":16083:16110   */\n      swap1\n      pop\n        /* \"#utility.yul\":16156:16165   */\n      dup2\n        /* \"#utility.yul\":16150:16154   */\n      dup2\n        /* \"#utility.yul\":16146:16166   */\n      sub\n        /* \"#utility.yul\":16142:16143   */\n      0x00\n        /* \"#utility.yul\":16131:16140   */\n      dup4\n        /* \"#utility.yul\":16127:16144   */\n      add\n        /* \"#utility.yul\":16120:16167   */\n      mstore\n        /* \"#utility.yul\":16184:16262   */\n      tag_281\n        /* \"#utility.yul\":16257:16261   */\n      dup2\n        /* \"#utility.yul\":16248:16254   */\n      dup9\n        /* \"#utility.yul\":16184:16262   */\n      tag_76\n      jump\t// in\n    tag_281:\n        /* \"#utility.yul\":16176:16262   */\n      swap1\n      pop\n        /* \"#utility.yul\":16272:16344   */\n      tag_282\n        /* \"#utility.yul\":16340:16342   */\n      0x20\n        /* \"#utility.yul\":16329:16338   */\n      dup4\n        /* \"#utility.yul\":16325:16343   */\n      add\n        /* \"#utility.yul\":16316:16322   */\n      dup8\n        /* \"#utility.yul\":16272:16344   */\n      tag_78\n      jump\t// in\n    tag_282:\n        /* \"#utility.yul\":16391:16400   */\n      dup2\n        /* \"#utility.yul\":16385:16389   */\n      dup2\n        /* \"#utility.yul\":16381:16401   */\n      sub\n        /* \"#utility.yul\":16376:16378   */\n      0x40\n        /* \"#utility.yul\":16365:16374   */\n      dup4\n        /* \"#utility.yul\":16361:16379   */\n      add\n        /* \"#utility.yul\":16354:16402   */\n      mstore\n        /* \"#utility.yul\":16419:16497   */\n      tag_283\n        /* \"#utility.yul\":16492:16496   */\n      dup2\n        /* \"#utility.yul\":16483:16489   */\n      dup7\n        /* \"#utility.yul\":16419:16497   */\n      tag_76\n      jump\t// in\n    tag_283:\n        /* \"#utility.yul\":16411:16497   */\n      swap1\n      pop\n        /* \"#utility.yul\":16507:16579   */\n      tag_284\n        /* \"#utility.yul\":16575:16577   */\n      0x60\n        /* \"#utility.yul\":16564:16573   */\n      dup4\n        /* \"#utility.yul\":16560:16578   */\n      add\n        /* \"#utility.yul\":16551:16557   */\n      dup6\n        /* \"#utility.yul\":16507:16579   */\n      tag_78\n      jump\t// in\n    tag_284:\n        /* \"#utility.yul\":16627:16636   */\n      dup2\n        /* \"#utility.yul\":16621:16625   */\n      dup2\n        /* \"#utility.yul\":16617:16637   */\n      sub\n        /* \"#utility.yul\":16611:16614   */\n      0x80\n        /* \"#utility.yul\":16600:16609   */\n      dup4\n        /* \"#utility.yul\":16596:16615   */\n      add\n        /* \"#utility.yul\":16589:16638   */\n      mstore\n        /* \"#utility.yul\":16655:16733   */\n      tag_285\n        /* \"#utility.yul\":16728:16732   */\n      dup2\n        /* \"#utility.yul\":16719:16725   */\n      dup5\n        /* \"#utility.yul\":16655:16733   */\n      tag_76\n      jump\t// in\n    tag_285:\n        /* \"#utility.yul\":16647:16733   */\n      swap1\n      pop\n        /* \"#utility.yul\":15803:16740   */\n      swap7\n      swap6\n      pop\n      pop\n      pop\n      pop\n      pop\n      pop\n      jump\t// out\n\n    auxdata: 0xa2646970667358221220f17fcbe8efbcec969aaa539c4a58ad67e896fc0c0a66b6e6a52d03fcf115806e64736f6c634300081e0033\n}\n",
				"bytecode": {
					"linkReferences": {},
					"object": "6080604052348015600e575f5ffd5b50610e698061001c5f395ff3fe608060405234801561000f575f5ffd5b5060043610610055575f3560e01c80631627212c146100595780631b80bb3a146100895780632ded3568146100bb578063444d95b0146100d95780639e2aa6eb1461010b575b5f5ffd5b610073600480360381019061006e9190610594565b610127565b60405161008091906105d9565b60405180910390f35b6100a3600480360381019061009e9190610594565b610146565b6040516100b2939291906106b9565b60405180910390f35b6100c36102b8565b6040516100d091906106f5565b60405180910390f35b6100f360048036038101906100ee9190610594565b6102be565b604051610102939291906106b9565b60405180910390f35b61012560048036038101906101209190610864565b610388565b005b5f5f5f5f8481526020019081526020015f206002015414159050919050565b5f60605f5f5f5f8681526020019081526020015f206040518060600160405290815f82015f9054906101000a900473ffffffffffffffffffffffffffffffffffffffff1673ffffffffffffffffffffffffffffffffffffffff1673ffffffffffffffffffffffffffffffffffffffff1681526020016001820180546101ca9061095c565b80601f01602080910402602001604051908101604052809291908181526020018280546101f69061095c565b80156102415780601f1061021857610100808354040283529160200191610241565b820191905f5260205f20905b81548152906001019060200180831161022457829003601f168201915b5050505050815260200160028201548152505090505f81604001510361029c576040517f08c379a0000000000000000000000000000000000000000000000000000000008152600401610293906109d6565b60405180910390fd5b805f015181602001518260400151935093509350509193909250565b60015481565b5f602052805f5260405f205f91509050805f015f9054906101000a900473ffffffffffffffffffffffffffffffffffffffff16908060010180546103019061095c565b80601f016020809104026020016040519081016040528092919081815260200182805461032d9061095c565b80156103785780601f1061034f57610100808354040283529160200191610378565b820191905f5260205f20905b81548152906001019060200180831161035b57829003601f168201915b5050505050908060020154905083565b5f8490505f815111801561039e57506080815111155b6103dd576040517f08c379a00000000000000000000000000000000000000000000000000000000081526004016103d490610a3e565b60405180910390fd5b5f5f5f8881526020019081526020015f206002015414610432576040517f08c379a000000000000000000000000000000000000000000000000000000000815260040161042990610acc565b60405180910390fd5b60405180606001604052803373ffffffffffffffffffffffffffffffffffffffff168152602001868152602001428152505f5f8881526020019081526020015f205f820151815f015f6101000a81548173ffffffffffffffffffffffffffffffffffffffff021916908373ffffffffffffffffffffffffffffffffffffffff16021790555060208201518160010190816104cc9190610c8a565b506040820151816002015590505060015f8154809291906104ec90610d86565b91905055503373ffffffffffffffffffffffffffffffffffffffff16867fc53fdb167ae4e7df825301fdf14ad957c5b7346bfc927cda990f52e27b3476a68742888888604051610540959493929190610dcd565b60405180910390a3505050505050565b5f604051905090565b5f5ffd5b5f5ffd5b5f819050919050565b61057381610561565b811461057d575f5ffd5b50565b5f8135905061058e8161056a565b92915050565b5f602082840312156105a9576105a8610559565b5b5f6105b684828501610580565b91505092915050565b5f8115159050919050565b6105d3816105bf565b82525050565b5f6020820190506105ec5f8301846105ca565b92915050565b5f73ffffffffffffffffffffffffffffffffffffffff82169050919050565b5f61061b826105f2565b9050919050565b61062b81610611565b82525050565b5f81519050919050565b5f82825260208201905092915050565b8281835e5f83830152505050565b5f601f19601f8301169050919050565b5f61067382610631565b61067d818561063b565b935061068d81856020860161064b565b61069681610659565b840191505092915050565b5f819050919050565b6106b3816106a1565b82525050565b5f6060820190506106cc5f830186610622565b81810360208301526106de8185610669565b90506106ed60408301846106aa565b949350505050565b5f6020820190506107085f8301846106aa565b92915050565b5f5ffd5b5f5ffd5b7f4e487b71000000000000000000000000000000000000000000000000000000005f52604160045260245ffd5b61074c82610659565b810181811067ffffffffffffffff8211171561076b5761076a610716565b5b80604052505050565b5f61077d610550565b90506107898282610743565b919050565b5f67ffffffffffffffff8211156107a8576107a7610716565b5b6107b182610659565b9050602081019050919050565b828183375f83830152505050565b5f6107de6107d98461078e565b610774565b9050828152602081018484840111156107fa576107f9610712565b5b6108058482856107be565b509392505050565b5f82601f8301126108215761082061070e565b5b81356108318482602086016107cc565b91505092915050565b610843816106a1565b811461084d575f5ffd5b50565b5f8135905061085e8161083a565b92915050565b5f5f5f5f5f60a0868803121561087d5761087c610559565b5b5f61088a88828901610580565b955050602086013567ffffffffffffffff8111156108ab576108aa61055d565b5b6108b78882890161080d565b945050604086013567ffffffffffffffff8111156108d8576108d761055d565b5b6108e48882890161080d565b93505060606108f588828901610850565b925050608086013567ffffffffffffffff8111156109165761091561055d565b5b6109228882890161080d565b9150509295509295909350565b7f4e487b71000000000000000000000000000000000000000000000000000000005f52602260045260245ffd5b5f600282049050600182168061097357607f821691505b6020821081036109865761098561092f565b5b50919050565b7f50726f6f6653746f72653a2050726f6f66206e6f7420666f756e6400000000005f82015250565b5f6109c0601b8361063b565b91506109cb8261098c565b602082019050919050565b5f6020820190508181035f8301526109ed816109b4565b9050919050565b7f50726f6f6653746f72653a20496e76616c6964204349440000000000000000005f82015250565b5f610a2860178361063b565b9150610a33826109f4565b602082019050919050565b5f6020820190508181035f830152610a5581610a1c565b9050919050565b7f50726f6f6653746f72653a2046696c65206861736820616c72656164792065785f8201527f6973747300000000000000000000000000000000000000000000000000000000602082015250565b5f610ab660248361063b565b9150610ac182610a5c565b604082019050919050565b5f6020820190508181035f830152610ae381610aaa565b9050919050565b5f819050815f5260205f209050919050565b5f6020601f8301049050919050565b5f82821b905092915050565b5f60088302610b467fffffffffffffffffffffffffffffffffffffffffffffffffffffffffffffffff82610b0b565b610b508683610b0b565b95508019841693508086168417925050509392505050565b5f819050919050565b5f610b8b610b86610b81846106a1565b610b68565b6106a1565b9050919050565b5f819050919050565b610ba483610b71565b610bb8610bb082610b92565b848454610b17565b825550505050565b5f5f905090565b610bcf610bc0565b610bda818484610b9b565b505050565b5b81811015610bfd57610bf25f82610bc7565b600181019050610be0565b5050565b601f821115610c4257610c1381610aea565b610c1c84610afc565b81016020851015610c2b578190505b610c3f610c3785610afc565b830182610bdf565b50505b505050565b5f82821c905092915050565b5f610c625f1984600802610c47565b1980831691505092915050565b5f610c7a8383610c53565b9150826002028217905092915050565b610c9382610631565b67ffffffffffffffff811115610cac57610cab610716565b5b610cb6825461095c565b610cc1828285610c01565b5f60209050601f831160018114610cf2575f8415610ce0578287015190505b610cea8582610c6f565b865550610d51565b601f198416610d0086610aea565b5f5b82811015610d2757848901518255600182019150602085019450602081019050610d02565b86831015610d445784890151610d40601f891682610c53565b8355505b6001600288020188555050505b505050505050565b7f4e487b71000000000000000000000000000000000000000000000000000000005f52601160045260245ffd5b5f610d90826106a1565b91507fffffffffffffffffffffffffffffffffffffffffffffffffffffffffffffffff8203610dc257610dc1610d59565b5b600182019050919050565b5f60a0820190508181035f830152610de58188610669565b9050610df460208301876106aa565b8181036040830152610e068186610669565b9050610e1560608301856106aa565b8181036080830152610e278184610669565b9050969550505050505056fea2646970667358221220f17fcbe8efbcec969aaa539c4a58ad67e896fc0c0a66b6e6a52d03fcf115806e64736f6c634300081e0033",
					"opcodes": "PUSH1 0x80 PUSH1 0x40 MSTORE CALLVALUE DUP1 ISZERO PUSH1 0xE JUMPI PUSH0 PUSH0 REVERT JUMPDEST POP PUSH2 0xE69 DUP1 PUSH2 0x1C PUSH0 CODECOPY PUSH0 RETURN INVALID PUSH1 0x80 PUSH1 0x40 MSTORE CALLVALUE DUP1 ISZERO PUSH2 0xF JUMPI PUSH0 PUSH0 REVERT JUMPDEST POP PUSH1 0x4 CALLDATASIZE LT PUSH2 0x55 JUMPI PUSH0 CALLDATALOAD PUSH1 0xE0 SHR DUP1 PUSH4 0x1627212C EQ PUSH2 0x59 JUMPI DUP1 PUSH4 0x1B80BB3A EQ PUSH2 0x89 JUMPI DUP1 PUSH4 0x2DED3568 EQ PUSH2 0xBB JUMPI DUP1 PUSH4 0x444D95B0 EQ PUSH2 0xD9 JUMPI DUP1 PUSH4 0x9E2AA6EB EQ PUSH2 0x10B JUMPI JUMPDEST PUSH0 PUSH0 REVERT JUMPDEST PUSH2 0x73 PUSH1 0x4 DUP1 CALLDATASIZE SUB DUP2 ADD SWAP1 PUSH2 0x6E SWAP2 SWAP1 PUSH2 0x594 JUMP JUMPDEST PUSH2 0x127 JUMP JUMPDEST PUSH1 0x40 MLOAD PUSH2 0x80 SWAP2 SWAP1 PUSH2 0x5D9 JUMP JUMPDEST PUSH1 0x40 MLOAD DUP1 SWAP2 SUB SWAP1 RETURN JUMPDEST PUSH2 0xA3 PUSH1 0x4 DUP1 CALLDATASIZE SUB DUP2 ADD SWAP1 PUSH2 0x9E SWAP2 SWAP1 PUSH2 0x594 JUMP JUMPDEST PUSH2 0x146 JUMP JUMPDEST PUSH1 0x40 MLOAD PUSH2 0xB2 SWAP4 SWAP3 SWAP2 SWAP1 PUSH2 0x6B9 JUMP JUMPDEST PUSH1 0x40 MLOAD DUP1 SWAP2 SUB SWAP1 RETURN JUMPDEST PUSH2 0xC3 PUSH2 0x2B8 JUMP JUMPDEST PUSH1 0x40 MLOAD PUSH2 0xD0 SWAP2 SWAP1 PUSH2 0x6F5 JUMP JUMPDEST PUSH1 0x40 MLOAD DUP1 SWAP2 SUB SWAP1 RETURN JUMPDEST PUSH2 0xF3 PUSH1 0x4 DUP1 CALLDATASIZE SUB DUP2 ADD SWAP1 PUSH2 0xEE SWAP2 SWAP1 PUSH2 0x594 JUMP JUMPDEST PUSH2 0x2BE JUMP JUMPDEST PUSH1 0x40 MLOAD PUSH2 0x102 SWAP4 SWAP3 SWAP2 SWAP1 PUSH2 0x6B9 JUMP JUMPDEST PUSH1 0x40 MLOAD DUP1 SWAP2 SUB SWAP1 RETURN JUMPDEST PUSH2 0x125 PUSH1 0x4 DUP1 CALLDATASIZE SUB DUP2 ADD SWAP1 PUSH2 0x120 SWAP2 SWAP1 PUSH2 0x864 JUMP JUMPDEST PUSH2 0x388 JUMP JUMPDEST STOP JUMPDEST PUSH0 PUSH0 PUSH0 PUSH0 DUP5 DUP2 MSTORE PUSH1 0x20 ADD SWAP1 DUP2 MSTORE PUSH1 0x20 ADD PUSH0 KECCAK256 PUSH1 0x2 ADD SLOAD EQ ISZERO SWAP1 POP SWAP2 SWAP1 POP JUMP JUMPDEST PUSH0 PUSH1 0x60 PUSH0 PUSH0 PUSH0 PUSH0 DUP7 DUP2 MSTORE PUSH1 0x20 ADD SWAP1 DUP2 MSTORE PUSH1 0x20 ADD PUSH0 KECCAK256 PUSH1 0x40 MLOAD DUP1 PUSH1 0x60 ADD PUSH1 0x40 MSTORE SWAP1 DUP2 PUSH0 DUP3 ADD PUSH0 SWAP1 SLOAD SWAP1 PUSH2 0x100 EXP SWAP1 DIV PUSH20 0xFFFFFFFFFFFFFFFFFFFFFFFFFFFFFFFFFFFFFFFF AND PUSH20 0xFFFFFFFFFFFFFFFFFFFFFFFFFFFFFFFFFFFFFFFF AND PUSH20 0xFFFFFFFFFFFFFFFFFFFFFFFFFFFFFFFFFFFFFFFF AND DUP2 MSTORE PUSH1 0x20 ADD PUSH1 0x1 DUP3 ADD DUP1 SLOAD PUSH2 0x1CA SWAP1 PUSH2 0x95C JUMP JUMPDEST DUP1 PUSH1 0x1F ADD PUSH1 0x20 DUP1 SWAP2 DIV MUL PUSH1 0x20 ADD PUSH1 0x40 MLOAD SWAP1 DUP2 ADD PUSH1 0x40 MSTORE DUP1 SWAP3 SWAP2 SWAP1 DUP2 DUP2 MSTORE PUSH1 0x20 ADD DUP3 DUP1 SLOAD PUSH2 0x1F6 SWAP1 PUSH2 0x95C JUMP JUMPDEST DUP1 ISZERO PUSH2 0x241 JUMPI DUP1 PUSH1 0x1F LT PUSH2 0x218 JUMPI PUSH2 0x100 DUP1 DUP4 SLOAD DIV MUL DUP4 MSTORE SWAP2 PUSH1 0x20 ADD SWAP2 PUSH2 0x241 JUMP JUMPDEST DUP3 ADD SWAP2 SWAP1 PUSH0 MSTORE PUSH1 0x20 PUSH0 KECCAK256 SWAP1 JUMPDEST DUP2 SLOAD DUP2 MSTORE SWAP1 PUSH1 0x1 ADD SWAP1 PUSH1 0x20 ADD DUP1 DUP4 GT PUSH2 0x224 JUMPI DUP3 SWAP1 SUB PUSH1 0x1F AND DUP3 ADD SWAP2 JUMPDEST POP POP POP POP POP DUP2 MSTORE PUSH1 0x20 ADD PUSH1 0x2 DUP3 ADD SLOAD DUP2 MSTORE POP POP SWAP1 POP PUSH0 DUP2 PUSH1 0x40 ADD MLOAD SUB PUSH2 0x29C JUMPI PUSH1 0x40 MLOAD PUSH32 0x8C379A000000000000000000000000000000000000000000000000000000000 DUP2 MSTORE PUSH1 0x4 ADD PUSH2 0x293 SWAP1 PUSH2 0x9D6 JUMP JUMPDEST PUSH1 0x40 MLOAD DUP1 SWAP2 SUB SWAP1 REVERT JUMPDEST DUP1 PUSH0 ADD MLOAD DUP2 PUSH1 0x20 ADD MLOAD DUP3 PUSH1 0x40 ADD MLOAD SWAP4 POP SWAP4 POP SWAP4 POP POP SWAP2 SWAP4 SWAP1 SWAP3 POP JUMP JUMPDEST PUSH1 0x1 SLOAD DUP2 JUMP JUMPDEST PUSH0 PUSH1 0x20 MSTORE DUP1 PUSH0 MSTORE PUSH1 0x40 PUSH0 KECCAK256 PUSH0 SWAP2 POP SWAP1 POP DUP1 PUSH0 ADD PUSH0 SWAP1 SLOAD SWAP1 PUSH2 0x100 EXP SWAP1 DIV PUSH20 0xFFFFFFFFFFFFFFFFFFFFFFFFFFFFFFFFFFFFFFFF AND SWAP1 DUP1 PUSH1 0x1 ADD DUP1 SLOAD PUSH2 0x301 SWAP1 PUSH2 0x95C JUMP JUMPDEST DUP1 PUSH1 0x1F ADD PUSH1 0x20 DUP1 SWAP2 DIV MUL PUSH1 0x20 ADD PUSH1 0x40 MLOAD SWAP1 DUP2 ADD PUSH1 0x40 MSTORE DUP1 SWAP3 SWAP2 SWAP1 DUP2 DUP2 MSTORE PUSH1 0x20 ADD DUP3 DUP1 SLOAD PUSH2 0x32D SWAP1 PUSH2 0x95C JUMP JUMPDEST DUP1 ISZERO PUSH2 0x378 JUMPI DUP1 PUSH1 0x1F LT PUSH2 0x34F JUMPI PUSH2 0x100 DUP1 DUP4 SLOAD DIV MUL DUP4 MSTORE SWAP2 PUSH1 0x20 ADD SWAP2 PUSH2 0x378 JUMP JUMPDEST DUP3 ADD SWAP2 SWAP1 PUSH0 MSTORE PUSH1 0x20 PUSH0 KECCAK256 SWAP1 JUMPDEST DUP2 SLOAD DUP2 MSTORE SWAP1 PUSH1 0x1 ADD SWAP1 PUSH1 0x20 ADD DUP1 DUP4 GT PUSH2 0x35B JUMPI DUP3 SWAP1 SUB PUSH1 0x1F AND DUP3 ADD SWAP2 JUMPDEST POP POP POP POP POP SWAP1 DUP1 PUSH1 0x2 ADD SLOAD SWAP1 POP DUP4 JUMP JUMPDEST PUSH0 DUP5 SWAP1 POP PUSH0 DUP2 MLOAD GT DUP1 ISZERO PUSH2 0x39E JUMPI POP PUSH1 0x80 DUP2 MLOAD GT ISZERO JUMPDEST PUSH2 0x3DD JUMPI PUSH1 0x40 MLOAD PUSH32 0x8C379A000000000000000000000000000000000000000000000000000000000 DUP2 MSTORE PUSH1 0x4 ADD PUSH2 0x3D4 SWAP1 PUSH2 0xA3E JUMP JUMPDEST PUSH1 0x40 MLOAD DUP1 SWAP2 SUB SWAP1 REVERT JUMPDEST PUSH0 PUSH0 PUSH0 DUP9 DUP2 MSTORE PUSH1 0x20 ADD SWAP1 DUP2 MSTORE PUSH1 0x20 ADD PUSH0 KECCAK256 PUSH1 0x2 ADD SLOAD EQ PUSH2 0x432 JUMPI PUSH1 0x40 MLOAD PUSH32 0x8C379A000000000000000000000000000000000000000000000000000000000 DUP2 MSTORE PUSH1 0x4 ADD PUSH2 0x429 SWAP1 PUSH2 0xACC JUMP JUMPDEST PUSH1 0x40 MLOAD DUP1 SWAP2 SUB SWAP1 REVERT JUMPDEST PUSH1 0x40 MLOAD DUP1 PUSH1 0x60 ADD PUSH1 0x40 MSTORE DUP1 CALLER PUSH20 0xFFFFFFFFFFFFFFFFFFFFFFFFFFFFFFFFFFFFFFFF AND DUP2 MSTORE PUSH1 0x20 ADD DUP7 DUP2 MSTORE PUSH1 0x20 ADD TIMESTAMP DUP2 MSTORE POP PUSH0 PUSH0 DUP9 DUP2 MSTORE PUSH1 0x20 ADD SWAP1 DUP2 MSTORE PUSH1 0x20 ADD PUSH0 KECCAK256 PUSH0 DUP3 ADD MLOAD DUP2 PUSH0 ADD PUSH0 PUSH2 0x100 EXP DUP2 SLOAD DUP2 PUSH20 0xFFFFFFFFFFFFFFFFFFFFFFFFFFFFFFFFFFFFFFFF MUL NOT AND SWAP1 DUP4 PUSH20 0xFFFFFFFFFFFFFFFFFFFFFFFFFFFFFFFFFFFFFFFF AND MUL OR SWAP1 SSTORE POP PUSH1 0x20 DUP3 ADD MLOAD DUP2 PUSH1 0x1 ADD SWAP1 DUP2 PUSH2 0x4CC SWAP2 SWAP1 PUSH2 0xC8A JUMP JUMPDEST POP PUSH1 0x40 DUP3 ADD MLOAD DUP2 PUSH1 0x2 ADD SSTORE SWAP1 POP POP PUSH1 0x1 PUSH0 DUP2 SLOAD DUP1 SWAP3 SWAP2 SWAP1 PUSH2 0x4EC SWAP1 PUSH2 0xD86 JUMP JUMPDEST SWAP2 SWAP1 POP SSTORE POP CALLER PUSH20 0xFFFFFFFFFFFFFFFFFFFFFFFFFFFFFFFFFFFFFFFF AND DUP7 PUSH32 0xC53FDB167AE4E7DF825301FDF14AD957C5B7346BFC927CDA990F52E27B3476A6 DUP8 TIMESTAMP DUP9 DUP9 DUP9 PUSH1 0x40 MLOAD PUSH2 0x540 SWAP6 SWAP5 SWAP4 SWAP3 SWAP2 SWAP1 PUSH2 0xDCD JUMP JUMPDEST PUSH1 0x40 MLOAD DUP1 SWAP2 SUB SWAP1 LOG3 POP POP POP POP POP POP JUMP JUMPDEST PUSH0 PUSH1 0x40 MLOAD SWAP1 POP SWAP1 JUMP JUMPDEST PUSH0 PUSH0 REVERT JUMPDEST PUSH0 PUSH0 REVERT JUMPDEST PUSH0 DUP2 SWAP1 POP SWAP2 SWAP1 POP JUMP JUMPDEST PUSH2 0x573 DUP2 PUSH2 0x561 JUMP JUMPDEST DUP2 EQ PUSH2 0x57D JUMPI PUSH0 PUSH0 REVERT JUMPDEST POP JUMP JUMPDEST PUSH0 DUP2 CALLDATALOAD SWAP1 POP PUSH2 0x58E DUP2 PUSH2 0x56A JUMP JUMPDEST SWAP3 SWAP2 POP POP JUMP JUMPDEST PUSH0 PUSH1 0x20 DUP3 DUP5 SUB SLT ISZERO PUSH2 0x5A9 JUMPI PUSH2 0x5A8 PUSH2 0x559 JUMP JUMPDEST JUMPDEST PUSH0 PUSH2 0x5B6 DUP5 DUP3 DUP6 ADD PUSH2 0x580 JUMP JUMPDEST SWAP2 POP POP SWAP3 SWAP2 POP POP JUMP JUMPDEST PUSH0 DUP2 ISZERO ISZERO SWAP1 POP SWAP2 SWAP1 POP JUMP JUMPDEST PUSH2 0x5D3 DUP2 PUSH2 0x5BF JUMP JUMPDEST DUP3 MSTORE POP POP JUMP JUMPDEST PUSH0 PUSH1 0x20 DUP3 ADD SWAP1 POP PUSH2 0x5EC PUSH0 DUP4 ADD DUP5 PUSH2 0x5CA JUMP JUMPDEST SWAP3 SWAP2 POP POP JUMP JUMPDEST PUSH0 PUSH20 0xFFFFFFFFFFFFFFFFFFFFFFFFFFFFFFFFFFFFFFFF DUP3 AND SWAP1 POP SWAP2 SWAP1 POP JUMP JUMPDEST PUSH0 PUSH2 0x61B DUP3 PUSH2 0x5F2 JUMP JUMPDEST SWAP1 POP SWAP2 SWAP1 POP JUMP JUMPDEST PUSH2 0x62B DUP2 PUSH2 0x611 JUMP JUMPDEST DUP3 MSTORE POP POP JUMP JUMPDEST PUSH0 DUP2 MLOAD SWAP1 POP SWAP2 SWAP1 POP JUMP JUMPDEST PUSH0 DUP3 DUP3 MSTORE PUSH1 0x20 DUP3 ADD SWAP1 POP SWAP3 SWAP2 POP POP JUMP JUMPDEST DUP3 DUP2 DUP4 MCOPY PUSH0 DUP4 DUP4 ADD MSTORE POP POP POP JUMP JUMPDEST PUSH0 PUSH1 0x1F NOT PUSH1 0x1F DUP4 ADD AND SWAP1 POP SWAP2 SWAP1 POP JUMP JUMPDEST PUSH0 PUSH2 0x673 DUP3 PUSH2 0x631 JUMP JUMPDEST PUSH2 0x67D DUP2 DUP6 PUSH2 0x63B JUMP JUMPDEST SWAP4 POP PUSH2 0x68D DUP2 DUP6 PUSH1 0x20 DUP7 ADD PUSH2 0x64B JUMP JUMPDEST PUSH2 0x696 DUP2 PUSH2 0x659 JUMP JUMPDEST DUP5 ADD SWAP2 POP POP SWAP3 SWAP2 POP POP JUMP JUMPDEST PUSH0 DUP2 SWAP1 POP SWAP2 SWAP1 POP JUMP JUMPDEST PUSH2 0x6B3 DUP2 PUSH2 0x6A1 JUMP JUMPDEST DUP3 MSTORE POP POP JUMP JUMPDEST PUSH0 PUSH1 0x60 DUP3 ADD SWAP1 POP PUSH2 0x6CC PUSH0 DUP4 ADD DUP7 PUSH2 0x622 JUMP JUMPDEST DUP2 DUP2 SUB PUSH1 0x20 DUP4 ADD MSTORE PUSH2 0x6DE DUP2 DUP6 PUSH2 0x669 JUMP JUMPDEST SWAP1 POP PUSH2 0x6ED PUSH1 0x40 DUP4 ADD DUP5 PUSH2 0x6AA JUMP JUMPDEST SWAP5 SWAP4 POP POP POP POP JUMP JUMPDEST PUSH0 PUSH1 0x20 DUP3 ADD SWAP1 POP PUSH2 0x708 PUSH0 DUP4 ADD DUP5 PUSH2 0x6AA JUMP JUMPDEST SWAP3 SWAP2 POP POP JUMP JUMPDEST PUSH0 PUSH0 REVERT JUMPDEST PUSH0 PUSH0 REVERT JUMPDEST PUSH32 0x4E487B7100000000000000000000000000000000000000000000000000000000 PUSH0 MSTORE PUSH1 0x41 PUSH1 0x4 MSTORE PUSH1 0x24 PUSH0 REVERT JUMPDEST PUSH2 0x74C DUP3 PUSH2 0x659 JUMP JUMPDEST DUP2 ADD DUP2 DUP2 LT PUSH8 0xFFFFFFFFFFFFFFFF DUP3 GT OR ISZERO PUSH2 0x76B JUMPI PUSH2 0x76A PUSH2 0x716 JUMP JUMPDEST JUMPDEST DUP1 PUSH1 0x40 MSTORE POP POP POP JUMP JUMPDEST PUSH0 PUSH2 0x77D PUSH2 0x550 JUMP JUMPDEST SWAP1 POP PUSH2 0x789 DUP3 DUP3 PUSH2 0x743 JUMP JUMPDEST SWAP2 SWAP1 POP JUMP JUMPDEST PUSH0 PUSH8 0xFFFFFFFFFFFFFFFF DUP3 GT ISZERO PUSH2 0x7A8 JUMPI PUSH2 0x7A7 PUSH2 0x716 JUMP JUMPDEST JUMPDEST PUSH2 0x7B1 DUP3 PUSH2 0x659 JUMP JUMPDEST SWAP1 POP PUSH1 0x20 DUP2 ADD SWAP1 POP SWAP2 SWAP1 POP JUMP JUMPDEST DUP3 DUP2 DUP4 CALLDATACOPY PUSH0 DUP4 DUP4 ADD MSTORE POP POP POP JUMP JUMPDEST PUSH0 PUSH2 0x7DE PUSH2 0x7D9 DUP5 PUSH2 0x78E JUMP JUMPDEST PUSH2 0x774 JUMP JUMPDEST SWAP1 POP DUP3 DUP2 MSTORE PUSH1 0x20 DUP2 ADD DUP5 DUP5 DUP5 ADD GT ISZERO PUSH2 0x7FA JUMPI PUSH2 0x7F9 PUSH2 0x712 JUMP JUMPDEST JUMPDEST PUSH2 0x805 DUP5 DUP3 DUP6 PUSH2 0x7BE JUMP JUMPDEST POP SWAP4 SWAP3 POP POP POP JUMP JUMPDEST PUSH0 DUP3 PUSH1 0x1F DUP4 ADD SLT PUSH2 0x821 JUMPI PUSH2 0x820 PUSH2 0x70E JUMP JUMPDEST JUMPDEST DUP2 CALLDATALOAD PUSH2 0x831 DUP5 DUP3 PUSH1 0x20 DUP7 ADD PUSH2 0x7CC JUMP JUMPDEST SWAP2 POP POP SWAP3 SWAP2 POP POP JUMP JUMPDEST PUSH2 0x843 DUP2 PUSH2 0x6A1 JUMP JUMPDEST DUP2 EQ PUSH2 0x84D JUMPI PUSH0 PUSH0 REVERT JUMPDEST POP JUMP JUMPDEST PUSH0 DUP2 CALLDATALOAD SWAP1 POP PUSH2 0x85E DUP2 PUSH2 0x83A JUMP JUMPDEST SWAP3 SWAP2 POP POP JUMP JUMPDEST PUSH0 PUSH0 PUSH0 PUSH0 PUSH0 PUSH1 0xA0 DUP7 DUP9 SUB SLT ISZERO PUSH2 0x87D JUMPI PUSH2 0x87C PUSH2 0x559 JUMP JUMPDEST JUMPDEST PUSH0 PUSH2 0x88A DUP9 DUP3 DUP10 ADD PUSH2 0x580 JUMP JUMPDEST SWAP6 POP POP PUSH1 0x20 DUP7 ADD CALLDATALOAD PUSH8 0xFFFFFFFFFFFFFFFF DUP2 GT ISZERO PUSH2 0x8AB JUMPI PUSH2 0x8AA PUSH2 0x55D JUMP JUMPDEST JUMPDEST PUSH2 0x8B7 DUP9 DUP3 DUP10 ADD PUSH2 0x80D JUMP JUMPDEST SWAP5 POP POP PUSH1 0x40 DUP7 ADD CALLDATALOAD PUSH8 0xFFFFFFFFFFFFFFFF DUP2 GT ISZERO PUSH2 0x8D8 JUMPI PUSH2 0x8D7 PUSH2 0x55D JUMP JUMPDEST JUMPDEST PUSH2 0x8E4 DUP9 DUP3 DUP10 ADD PUSH2 0x80D JUMP JUMPDEST SWAP4 POP POP PUSH1 0x60 PUSH2 0x8F5 DUP9 DUP3 DUP10 ADD PUSH2 0x850 JUMP JUMPDEST SWAP3 POP POP PUSH1 0x80 DUP7 ADD CALLDATALOAD PUSH8 0xFFFFFFFFFFFFFFFF DUP2 GT ISZERO PUSH2 0x916 JUMPI PUSH2 0x915 PUSH2 0x55D JUMP JUMPDEST JUMPDEST PUSH2 0x922 DUP9 DUP3 DUP10 ADD PUSH2 0x80D JUMP JUMPDEST SWAP2 POP POP SWAP3 SWAP6 POP SWAP3 SWAP6 SWAP1 SWAP4 POP JUMP JUMPDEST PUSH32 0x4E487B7100000000000000000000000000000000000000000000000000000000 PUSH0 MSTORE PUSH1 0x22 PUSH1 0x4 MSTORE PUSH1 0x24 PUSH0 REVERT JUMPDEST PUSH0 PUSH1 0x2 DUP3 DIV SWAP1 POP PUSH1 0x1 DUP3 AND DUP1 PUSH2 0x973 JUMPI PUSH1 0x7F DUP3 AND SWAP2 POP JUMPDEST PUSH1 0x20 DUP3 LT DUP2 SUB PUSH2 0x986 JUMPI PUSH2 0x985 PUSH2 0x92F JUMP JUMPDEST JUMPDEST POP SWAP2 SWAP1 POP JUMP JUMPDEST PUSH32 0x50726F6F6653746F72653A2050726F6F66206E6F7420666F756E640000000000 PUSH0 DUP3 ADD MSTORE POP JUMP JUMPDEST PUSH0 PUSH2 0x9C0 PUSH1 0x1B DUP4 PUSH2 0x63B JUMP JUMPDEST SWAP2 POP PUSH2 0x9CB DUP3 PUSH2 0x98C JUMP JUMPDEST PUSH1 0x20 DUP3 ADD SWAP1 POP SWAP2 SWAP1 POP JUMP JUMPDEST PUSH0 PUSH1 0x20 DUP3 ADD SWAP1 POP DUP2 DUP2 SUB PUSH0 DUP4 ADD MSTORE PUSH2 0x9ED DUP2 PUSH2 0x9B4 JUMP JUMPDEST SWAP1 POP SWAP2 SWAP1 POP JUMP JUMPDEST PUSH32 0x50726F6F6653746F72653A20496E76616C696420434944000000000000000000 PUSH0 DUP3 ADD MSTORE POP JUMP JUMPDEST PUSH0 PUSH2 0xA28 PUSH1 0x17 DUP4 PUSH2 0x63B JUMP JUMPDEST SWAP2 POP PUSH2 0xA33 DUP3 PUSH2 0x9F4 JUMP JUMPDEST PUSH1 0x20 DUP3 ADD SWAP1 POP SWAP2 SWAP1 POP JUMP JUMPDEST PUSH0 PUSH1 0x20 DUP3 ADD SWAP1 POP DUP2 DUP2 SUB PUSH0 DUP4 ADD MSTORE PUSH2 0xA55 DUP2 PUSH2 0xA1C JUMP JUMPDEST SWAP1 POP SWAP2 SWAP1 POP JUMP JUMPDEST PUSH32 0x50726F6F6653746F72653A2046696C65206861736820616C7265616479206578 PUSH0 DUP3 ADD MSTORE PUSH32 0x6973747300000000000000000000000000000000000000000000000000000000 PUSH1 0x20 DUP3 ADD MSTORE POP JUMP JUMPDEST PUSH0 PUSH2 0xAB6 PUSH1 0x24 DUP4 PUSH2 0x63B JUMP JUMPDEST SWAP2 POP PUSH2 0xAC1 DUP3 PUSH2 0xA5C JUMP JUMPDEST PUSH1 0x40 DUP3 ADD SWAP1 POP SWAP2 SWAP1 POP JUMP JUMPDEST PUSH0 PUSH1 0x20 DUP3 ADD SWAP1 POP DUP2 DUP2 SUB PUSH0 DUP4 ADD MSTORE PUSH2 0xAE3 DUP2 PUSH2 0xAAA JUMP JUMPDEST SWAP1 POP SWAP2 SWAP1 POP JUMP JUMPDEST PUSH0 DUP2 SWAP1 POP DUP2 PUSH0 MSTORE PUSH1 0x20 PUSH0 KECCAK256 SWAP1 POP SWAP2 SWAP1 POP JUMP JUMPDEST PUSH0 PUSH1 0x20 PUSH1 0x1F DUP4 ADD DIV SWAP1 POP SWAP2 SWAP1 POP JUMP JUMPDEST PUSH0 DUP3 DUP3 SHL SWAP1 POP SWAP3 SWAP2 POP POP JUMP JUMPDEST PUSH0 PUSH1 0x8 DUP4 MUL PUSH2 0xB46 PUSH32 0xFFFFFFFFFFFFFFFFFFFFFFFFFFFFFFFFFFFFFFFFFFFFFFFFFFFFFFFFFFFFFFFF DUP3 PUSH2 0xB0B JUMP JUMPDEST PUSH2 0xB50 DUP7 DUP4 PUSH2 0xB0B JUMP JUMPDEST SWAP6 POP DUP1 NOT DUP5 AND SWAP4 POP DUP1 DUP7 AND DUP5 OR SWAP3 POP POP POP SWAP4 SWAP3 POP POP POP JUMP JUMPDEST PUSH0 DUP2 SWAP1 POP SWAP2 SWAP1 POP JUMP JUMPDEST PUSH0 PUSH2 0xB8B PUSH2 0xB86 PUSH2 0xB81 DUP5 PUSH2 0x6A1 JUMP JUMPDEST PUSH2 0xB68 JUMP JUMPDEST PUSH2 0x6A1 JUMP JUMPDEST SWAP1 POP SWAP2 SWAP1 POP JUMP JUMPDEST PUSH0 DUP2 SWAP1 POP SWAP2 SWAP1 POP JUMP JUMPDEST PUSH2 0xBA4 DUP4 PUSH2 0xB71 JUMP JUMPDEST PUSH2 0xBB8 PUSH2 0xBB0 DUP3 PUSH2 0xB92 JUMP JUMPDEST DUP5 DUP5 SLOAD PUSH2 0xB17 JUMP JUMPDEST DUP3 SSTORE POP POP POP POP JUMP JUMPDEST PUSH0 PUSH0 SWAP1 POP SWAP1 JUMP JUMPDEST PUSH2 0xBCF PUSH2 0xBC0 JUMP JUMPDEST PUSH2 0xBDA DUP2 DUP5 DUP5 PUSH2 0xB9B JUMP JUMPDEST POP POP POP JUMP JUMPDEST JUMPDEST DUP2 DUP2 LT ISZERO PUSH2 0xBFD JUMPI PUSH2 0xBF2 PUSH0 DUP3 PUSH2 0xBC7 JUMP JUMPDEST PUSH1 0x1 DUP2 ADD SWAP1 POP PUSH2 0xBE0 JUMP JUMPDEST POP POP JUMP JUMPDEST PUSH1 0x1F DUP3 GT ISZERO PUSH2 0xC42 JUMPI PUSH2 0xC13 DUP2 PUSH2 0xAEA JUMP JUMPDEST PUSH2 0xC1C DUP5 PUSH2 0xAFC JUMP JUMPDEST DUP2 ADD PUSH1 0x20 DUP6 LT ISZERO PUSH2 0xC2B JUMPI DUP2 SWAP1 POP JUMPDEST PUSH2 0xC3F PUSH2 0xC37 DUP6 PUSH2 0xAFC JUMP JUMPDEST DUP4 ADD DUP3 PUSH2 0xBDF JUMP JUMPDEST POP POP JUMPDEST POP POP POP JUMP JUMPDEST PUSH0 DUP3 DUP3 SHR SWAP1 POP SWAP3 SWAP2 POP POP JUMP JUMPDEST PUSH0 PUSH2 0xC62 PUSH0 NOT DUP5 PUSH1 0x8 MUL PUSH2 0xC47 JUMP JUMPDEST NOT DUP1 DUP4 AND SWAP2 POP POP SWAP3 SWAP2 POP POP JUMP JUMPDEST PUSH0 PUSH2 0xC7A DUP4 DUP4 PUSH2 0xC53 JUMP JUMPDEST SWAP2 POP DUP3 PUSH1 0x2 MUL DUP3 OR SWAP1 POP SWAP3 SWAP2 POP POP JUMP JUMPDEST PUSH2 0xC93 DUP3 PUSH2 0x631 JUMP JUMPDEST PUSH8 0xFFFFFFFFFFFFFFFF DUP2 GT ISZERO PUSH2 0xCAC JUMPI PUSH2 0xCAB PUSH2 0x716 JUMP JUMPDEST JUMPDEST PUSH2 0xCB6 DUP3 SLOAD PUSH2 0x95C JUMP JUMPDEST PUSH2 0xCC1 DUP3 DUP3 DUP6 PUSH2 0xC01 JUMP JUMPDEST PUSH0 PUSH1 0x20 SWAP1 POP PUSH1 0x1F DUP4 GT PUSH1 0x1 DUP2 EQ PUSH2 0xCF2 JUMPI PUSH0 DUP5 ISZERO PUSH2 0xCE0 JUMPI DUP3 DUP8 ADD MLOAD SWAP1 POP JUMPDEST PUSH2 0xCEA DUP6 DUP3 PUSH2 0xC6F JUMP JUMPDEST DUP7 SSTORE POP PUSH2 0xD51 JUMP JUMPDEST PUSH1 0x1F NOT DUP5 AND PUSH2 0xD00 DUP7 PUSH2 0xAEA JUMP JUMPDEST PUSH0 JUMPDEST DUP3 DUP2 LT ISZERO PUSH2 0xD27 JUMPI DUP5 DUP10 ADD MLOAD DUP3 SSTORE PUSH1 0x1 DUP3 ADD SWAP2 POP PUSH1 0x20 DUP6 ADD SWAP5 POP PUSH1 0x20 DUP2 ADD SWAP1 POP PUSH2 0xD02 JUMP JUMPDEST DUP7 DUP4 LT ISZERO PUSH2 0xD44 JUMPI DUP5 DUP10 ADD MLOAD PUSH2 0xD40 PUSH1 0x1F DUP10 AND DUP3 PUSH2 0xC53 JUMP JUMPDEST DUP4 SSTORE POP JUMPDEST PUSH1 0x1 PUSH1 0x2 DUP9 MUL ADD DUP9 SSTORE POP POP POP JUMPDEST POP POP POP POP POP POP JUMP JUMPDEST PUSH32 0x4E487B7100000000000000000000000000000000000000000000000000000000 PUSH0 MSTORE PUSH1 0x11 PUSH1 0x4 MSTORE PUSH1 0x24 PUSH0 REVERT JUMPDEST PUSH0 PUSH2 0xD90 DUP3 PUSH2 0x6A1 JUMP JUMPDEST SWAP2 POP PUSH32 0xFFFFFFFFFFFFFFFFFFFFFFFFFFFFFFFFFFFFFFFFFFFFFFFFFFFFFFFFFFFFFFFF DUP3 SUB PUSH2 0xDC2 JUMPI PUSH2 0xDC1 PUSH2 0xD59 JUMP JUMPDEST JUMPDEST PUSH1 0x1 DUP3 ADD SWAP1 POP SWAP2 SWAP1 POP JUMP JUMPDEST PUSH0 PUSH1 0xA0 DUP3 ADD SWAP1 POP DUP2 DUP2 SUB PUSH0 DUP4 ADD MSTORE PUSH2 0xDE5 DUP2 DUP9 PUSH2 0x669 JUMP JUMPDEST SWAP1 POP PUSH2 0xDF4 PUSH1 0x20 DUP4 ADD DUP8 PUSH2 0x6AA JUMP JUMPDEST DUP2 DUP2 SUB PUSH1 0x40 DUP4 ADD MSTORE PUSH2 0xE06 DUP2 DUP7 PUSH2 0x669 JUMP JUMPDEST SWAP1 POP PUSH2 0xE15 PUSH1 0x60 DUP4 ADD DUP6 PUSH2 0x6AA JUMP JUMPDEST DUP2 DUP2 SUB PUSH1 0x80 DUP4 ADD MSTORE PUSH2 0xE27 DUP2 DUP5 PUSH2 0x669 JUMP JUMPDEST SWAP1 POP SWAP7 SWAP6 POP POP POP POP POP POP JUMP INVALID LOG2 PUSH5 0x6970667358 0x22 SLT KECCAK256 CALL PUSH32 0xCBE8EFBCEC969AAA539C4A58AD67E896FC0C0A66B6E6A52D03FCF115806E6473 PUSH16 0x6C634300081E00330000000000000000 "
				},
				"gasEstimates": {
					"creation": {
						"codeDepositCost": "737800",
						"executionCost": "771",
						"totalCost": "738571"
					},
					"external": {
						"getProof(bytes32)": "infinite",
						"isProofExists(bytes32)": "2766",
						"proofs(bytes32)": "infinite",
						"storeProof(bytes32,string,string,uint256,string)": "infinite",
						"totalProofs()": "2447"
					}
				},
				"methodIdentifiers": {
					"getProof(bytes32)": "1b80bb3a",
					"isProofExists(bytes32)": "1627212c",
					"proofs(bytes32)": "444d95b0",
					"storeProof(bytes32,string,string,uint256,string)": "9e2aa6eb",
					"totalProofs()": "2ded3568"
				}
			},
			"storageLayout": {
				"storage": [
					{
						"astId": 17,
						"contract": "ProofStore.sol:ProofStore",
						"label": "proofs",
						"offset": 0,
						"slot": "0",
						"type": "t_mapping(t_bytes32,t_struct(Proof)12_storage)"
					},
					{
						"astId": 19,
						"contract": "ProofStore.sol:ProofStore",
						"label": "totalProofs",
						"offset": 0,
						"slot": "1",
						"type": "t_uint256"
					}
				],
				"types": {
					"t_address": {
						"encoding": "inplace",
						"label": "address",
						"numberOfBytes": "20"
					},
					"t_bytes32": {
						"encoding": "inplace",
						"label": "bytes32",
						"numberOfBytes": "32"
					},
					"t_mapping(t_bytes32,t_struct(Proof)12_storage)": {
						"encoding": "mapping",
						"key": "t_bytes32",
						"label": "mapping(bytes32 => struct ProofStore.Proof)",
						"numberOfBytes": "32",
						"value": "t_struct(Proof)12_storage"
					},
					"t_string_storage": {
						"encoding": "bytes",
						"label": "string",
						"numberOfBytes": "32"
					},
					"t_struct(Proof)12_storage": {
						"encoding": "inplace",
						"label": "struct ProofStore.Proof",
						"members": [
							{
								"astId": 7,
								"contract": "ProofStore.sol:ProofStore",
								"label": "owner",
								"offset": 0,
								"slot": "0",
								"type": "t_address"
							},
							{
								"astId": 9,
								"contract": "ProofStore.sol:ProofStore",
								"label": "cid",
								"offset": 0,
								"slot": "1",
								"type": "t_string_storage"
							},
							{
								"astId": 11,
								"contract": "ProofStore.sol:ProofStore",
								"label": "timestamp",
								"offset": 0,
								"slot": "2",
								"type": "t_uint256"
							}
						],
						"numberOfBytes": "96"
					},
					"t_uint256": {
						"encoding": "inplace",
						"label": "uint256",
						"numberOfBytes": "32"
					}
				}
			},
			"userdoc": {
				"kind": "user",
				"methods": {},
				"version": 1
			}
		}
	}
}