{
  "_format": "hh3-artifact-1",
  "contractName": "ProofStore",
  "sourceName": "contracts/ProofStore.sol",
  "abi": [
    {
      "anonymous": false,
      "inputs": [
        {
          "indexed": true,
          "internalType": "address",
          "name": "walletAddress",
          "type": "address"
        },
        {
          "indexed": true,
          "internalType": "string",
          "name": "fileHash",
          "type": "string"
        },
        {
          "indexed": false,
          "internalType": "string",
          "name": "cid",
          "type": "string"
        },
        {
          "indexed": false,
          "internalType": "uint256",
          "name": "timestamp",
          "type": "uint256"
        }
      ],
      "name": "ProofCreated",
      "type": "event"
    },
    {
      "inputs": [
        {
          "internalType": "string",
          "name": "_fileHash",
          "type": "string"
        }
      ],
      "name": "getProof",
      "outputs": [
        {
          "components": [
            {
              "internalType": "address",
              "name": "walletAddress",
              "type": "address"
            },
            {
              "internalType": "string",
              "name": "fileHash",
              "type": "string"
            },
            {
              "internalType": "string",
              "name": "fileName",
              "type": "string"
            },
            {
              "internalType": "uint256",
              "name": "fileSize",
              "type": "uint256"
            },
            {
              "internalType": "string",
              "name": "contentType",
              "type": "string"
            },
            {
              "internalType": "string",
              "name": "cid",
              "type": "string"
            },
            {
              "internalType": "uint256",
              "name": "timestamp",
              "type": "uint256"
            }
          ],
          "internalType": "struct ProofStore.Proof",
          "name": "",
          "type": "tuple"
        }
      ],
      "stateMutability": "view",
      "type": "function"
    },
    {
      "inputs": [
        {
          "internalType": "address",
          "name": "_user",
          "type": "address"
        },
        {
          "internalType": "string",
          "name": "_fileHash",
          "type": "string"
        }
      ],
      "name": "getProofForUser",
      "outputs": [
        {
          "components": [
            {
              "internalType": "address",
              "name": "walletAddress",
              "type": "address"
            },
            {
              "internalType": "string",
              "name": "fileHash",
              "type": "string"
            },
            {
              "internalType": "string",
              "name": "fileName",
              "type": "string"
            },
            {
              "internalType": "uint256",
              "name": "fileSize",
              "type": "uint256"
            },
            {
              "internalType": "string",
              "name": "contentType",
              "type": "string"
            },
            {
              "internalType": "string",
              "name": "cid",
              "type": "string"
            },
            {
              "internalType": "uint256",
              "name": "timestamp",
              "type": "uint256"
            }
          ],
          "internalType": "struct ProofStore.Proof",
          "name": "",
          "type": "tuple"
        }
      ],
      "stateMutability": "view",
      "type": "function"
    },
    {
      "inputs": [
        {
          "internalType": "address",
          "name": "_user",
          "type": "address"
        }
      ],
      "name": "getUserProofs",
      "outputs": [
        {
          "internalType": "string[]",
          "name": "",
          "type": "string[]"
        }
      ],
      "stateMutability": "view",
      "type": "function"
    },
    {
      "inputs": [
        {
          "internalType": "string",
          "name": "_fileHash",
          "type": "string"
        },
        {
          "internalType": "string",
          "name": "_fileName",
          "type": "string"
        },
        {
          "internalType": "uint256",
          "name": "_fileSize",
          "type": "uint256"
        },
        {
          "internalType": "string",
          "name": "_contentType",
          "type": "string"
        },
        {
          "internalType": "string",
          "name": "_cid",
          "type": "string"
        }
      ],
      "name": "storeProof",
      "outputs": [],
      "stateMutability": "nonpayable",
      "type": "function"
    },
    {
      "inputs": [],
      "name": "totalProofs",
      "outputs": [
        {
          "internalType": "uint256",
          "name": "",
          "type": "uint256"
        }
      ],
      "stateMutability": "view",
      "type": "function"
    },
    {
      "inputs": [
        {
          "internalType": "string",
          "name": "_fileHash",
          "type": "string"
        },
        {
          "internalType": "string",
          "name": "_cid",
          "type": "string"
        }
      ],
      "name": "verifyProof",
      "outputs": [
        {
          "internalType": "bool",
          "name": "",
          "type": "bool"
        }
      ],
      "stateMutability": "view",
      "type": "function"
    }
  ],
  "bytecode": "0x6080604052348015600e575f5ffd5b506112d58061001c5f395ff3fe608060405234801561000f575f5ffd5b5060043610610060575f3560e01c80632ded35681461006457806337d75de3146100805780633f86f819146100a057806346bdfb80146100b557806378939fad146100d5578063d57763a1146100f8575b5f5ffd5b61006d60035481565b6040519081526020015b60405180910390f35b61009361008e366004610d62565b61010b565b6040516100779190610ddb565b6100b36100ae366004610e83565b61040b565b005b6100c86100c3366004610f45565b610632565b6040516100779190610f65565b6100e86100e3366004610fc8565b61071c565b6040519015158152602001610077565b610093610106366004611017565b610779565b610113610c65565b5f61011e8484610ab0565b5f81815260208190526040812060060154919250036101845760405162461bcd60e51b815260206004820152601b60248201527f50726f6f6653746f72653a2070726f6f66206e6f7420666f756e64000000000060448201526064015b60405180910390fd5b5f8181526020818152604091829020825160e0810190935280546001600160a01b0316835260018101805491928401916101bd90611051565b80601f01602080910402602001604051908101604052809291908181526020018280546101e990611051565b80156102345780601f1061020b57610100808354040283529160200191610234565b820191905f5260205f20905b81548152906001019060200180831161021757829003601f168201915b5050505050815260200160028201805461024d90611051565b80601f016020809104026020016040519081016040528092919081815260200182805461027990611051565b80156102c45780601f1061029b576101008083540402835291602001916102c4565b820191905f5260205f20905b8154815290600101906020018083116102a757829003601f168201915b50505050508152602001600382015481526020016004820180546102e790611051565b80601f016020809104026020016040519081016040528092919081815260200182805461031390611051565b801561035e5780601f106103355761010080835404028352916020019161035e565b820191905f5260205f20905b81548152906001019060200180831161034157829003601f168201915b5050505050815260200160058201805461037790611051565b80601f01602080910402602001604051908101604052809291908181526020018280546103a390611051565b80156103ee5780601f106103c5576101008083540402835291602001916103ee565b820191905f5260205f20905b8154815290600101906020018083116103d157829003601f168201915b505050505081526020016006820154815250509150505b92915050565b61041785858484610ae2565b5f6104223387610ab0565b5f81815260208190526040902060060154909150156104975760405162461bcd60e51b815260206004820152602b60248201527f50726f6f6653746f72653a2073656e64657220616c72656164792073746f726560448201526a0c840e8d0d2e640d0c2e6d60ab1b606482015260840161017b565b6040805160e0810182523381526020808201898152828401899052606083018890526080830187905260a083018690524260c08401525f85815291829052929020815181546001600160a01b0319166001600160a01b03909116178155915190918291600182019061050990826110d5565b506040820151600282019061051e90826110d5565b50606082015160038201556080820151600482019061053d90826110d5565b5060a0820151600582019061055290826110d5565b5060c09190910151600690910155335f90815260016020818152604083208054928301815583529091200161058788826110d5565b5060028760405161059891906111a7565b9081526040516020918190038201902080546001810182555f91825291812090910183905560038054916105cb836111b2565b9190505550866040516105de91906111a7565b6040518091039020336001600160a01b03167fe8932153cac222c948293560d66f0332ff70e8e7d0ce4d7286f8a693781bbdee85426040516106219291906111d6565b60405180910390a350505050505050565b6001600160a01b0381165f908152600160209081526040808320805482518185028101850190935280835260609492939192909184015b82821015610711578382905f5260205f2001805461068690611051565b80601f01602080910402602001604051908101604052809291908181526020018280546106b290611051565b80156106fd5780601f106106d4576101008083540402835291602001916106fd565b820191905f5260205f20905b8154815290600101906020018083116106e057829003601f168201915b505050505081526020019060010190610669565b505050509050919050565b5f5f6107283385610ab0565b5f818152602081905260408120600681015492935091900361074e575f92505050610405565b835160208501206040516107669060058401906111f7565b6040518091039020149250505092915050565b610781610c65565b5f60028360405161079291906111a7565b90815260405190819003602001902080549091506107f25760405162461bcd60e51b815260206004820152601b60248201527f50726f6f6653746f72653a2070726f6f66206e6f7420666f756e640000000000604482015260640161017b565b5f5f825f8154811061080657610806611268565b905f5260205f20015481526020019081526020015f206040518060e00160405290815f82015f9054906101000a90046001600160a01b03166001600160a01b03166001600160a01b0316815260200160018201805461086490611051565b80601f016020809104026020016040519081016040528092919081815260200182805461089090611051565b80156108db5780601f106108b2576101008083540402835291602001916108db565b820191905f5260205f20905b8154815290600101906020018083116108be57829003601f168201915b505050505081526020016002820180546108f490611051565b80601f016020809104026020016040519081016040528092919081815260200182805461092090611051565b801561096b5780601f106109425761010080835404028352916020019161096b565b820191905f5260205f20905b81548152906001019060200180831161094e57829003601f168201915b505050505081526020016003820154815260200160048201805461098e90611051565b80601f01602080910402602001604051908101604052809291908181526020018280546109ba90611051565b8015610a055780601f106109dc57610100808354040283529160200191610a05565b820191905f5260205f20905b8154815290600101906020018083116109e857829003601f168201915b50505050508152602001600582018054610a1e90611051565b80601f0160208091040260200160405190810160405280929190818152602001828054610a4a90611051565b8015610a955780601f10610a6c57610100808354040283529160200191610a95565b820191905f5260205f20905b815481529060010190602001808311610a7857829003601f168201915b50505050508152602001600682015481525050915050919050565b5f8282604051602001610ac492919061127c565b60405160208183030381529060405280519060200120905092915050565b8351849015801590610af657506042815111155b610b4e5760405162461bcd60e51b8152602060048201526024808201527f50726f6f6653746f72653a20696e76616c69642066696c652068617368206c656044820152630dccee8d60e31b606482015260840161017b565b61010084511115610ba15760405162461bcd60e51b815260206004820152601e60248201527f50726f6f6653746f72653a2066696c65206e616d6520746f6f206c6f6e670000604482015260640161017b565b608083511115610bfd5760405162461bcd60e51b815260206004820152602160248201527f50726f6f6653746f72653a20636f6e74656e74207479706520746f6f206c6f6e6044820152606760f81b606482015260840161017b565b8151829015801590610c1157506080815111155b610c5d5760405162461bcd60e51b815260206004820152601e60248201527f50726f6f6653746f72653a20696e76616c696420636964206c656e6774680000604482015260640161017b565b505050505050565b6040518060e001604052805f6001600160a01b0316815260200160608152602001606081526020015f815260200160608152602001606081526020015f81525090565b80356001600160a01b0381168114610cbe575f5ffd5b919050565b634e487b7160e01b5f52604160045260245ffd5b5f82601f830112610ce6575f5ffd5b813567ffffffffffffffff811115610d0057610d00610cc3565b604051601f8201601f19908116603f0116810167ffffffffffffffff81118282101715610d2f57610d2f610cc3565b604052818152838201602001851015610d46575f5ffd5b816020850160208301375f918101602001919091529392505050565b5f5f60408385031215610d73575f5ffd5b610d7c83610ca8565b9150602083013567ffffffffffffffff811115610d97575f5ffd5b610da385828601610cd7565b9150509250929050565b5f81518084528060208401602086015e5f602082860101526020601f19601f83011685010191505092915050565b602080825282516001600160a01b03168282015282015160e060408301525f90610e09610100840182610dad565b90506040840151601f19848303016060850152610e268282610dad565b915050606084015160808401526080840151601f198483030160a0850152610e4e8282610dad565b91505060a0840151601f198483030160c0850152610e6c8282610dad565b91505060c084015160e08401528091505092915050565b5f5f5f5f5f60a08688031215610e97575f5ffd5b853567ffffffffffffffff811115610ead575f5ffd5b610eb988828901610cd7565b955050602086013567ffffffffffffffff811115610ed5575f5ffd5b610ee188828901610cd7565b94505060408601359250606086013567ffffffffffffffff811115610f04575f5ffd5b610f1088828901610cd7565b925050608086013567ffffffffffffffff811115610f2c575f5ffd5b610f3888828901610cd7565b9150509295509295909350565b5f60208284031215610f55575f5ffd5b610f5e82610ca8565b9392505050565b5f602082016020835280845180835260408501915060408160051b8601019250602086015f5b82811015610fbc57603f19878603018452610fa7858351610dad565b94506020938401939190910190600101610f8b565b50929695505050505050565b5f5f60408385031215610fd9575f5ffd5b823567ffffffffffffffff811115610fef575f5ffd5b610ffb85828601610cd7565b925050602083013567ffffffffffffffff811115610d97575f5ffd5b5f60208284031215611027575f5ffd5b813567ffffffffffffffff81111561103d575f5ffd5b61104984828501610cd7565b949350505050565b600181811c9082168061106557607f821691505b60208210810361108357634e487b7160e01b5f52602260045260245ffd5b50919050565b601f8211156110d057805f5260205f20601f840160051c810160208510156110ae5750805b601f840160051c820191505b818110156110cd575f81556001016110ba565b50505b505050565b815167ffffffffffffffff8111156110ef576110ef610cc3565b611103816110fd8454611051565b84611089565b6020601f821160018114611135575f831561111e5750848201515b5f19600385901b1c1916600184901b1784556110cd565b5f84815260208120601f198516915b828110156111645787850151825560209485019460019092019101611144565b508482101561118157868401515f19600387901b60f8161c191681555b50505050600190811b01905550565b5f81518060208401855e5f93019283525090919050565b5f610f5e8284611190565b5f600182016111cf57634e487b7160e01b5f52601160045260245ffd5b5060010190565b604081525f6111e86040830185610dad565b90508260208301529392505050565b5f5f835461120481611051565b60018216801561121b57600181146112305761125d565b60ff198316865281151582028601935061125d565b865f5260205f205f5b8381101561125557815488820152600190910190602001611239565b505081860193505b509195945050505050565b634e487b7160e01b5f52603260045260245ffd5b6bffffffffffffffffffffffff198360601b1681525f611049601483018461119056fea26469706673582212203f06fbab6256cc69203ae6fbd0aba09713f2f067a474cfd3c566305e61ef84b264736f6c634300081c0033",
  "linkReferences": {},
  "deployedLinkReferences": {},
  "immutableReferences": {},
  "inputSourceName": "project/contracts/ProofStore.sol",
  "buildInfoId": "solc-0_8_28-d65e96354f8a60a23cef568bea7091d11bd25030"
}